:100000000C940C030C941B270C9444030C94440391
:100010000C9444030C9444030C9444030C94440344
:100020000C9444030C9444030C944D2E0C941F2FF9
:100030000C9425290C9444030C9444030C9444031D
:100040000C9444030C9444030C9444030C94440314
:100050000C9444030C94C9290C9444030C94440359
:100060000C9444030C9444030C9444030C944403F4
:100070000C9444030C9444030C9444030C944403E4
:100080000C9444030C9444030C9444030C944403D4
:100090000C9444030C9444030C9444030C944403C4
:1000A0000C9444030C9444030C9444031D061D0655
:1000B00049064906B106CF06E707E707DA067307E0
:1000C000840784078C2FB32FAB30B32FAB30FF2FB7
:1000D0002230AB307930883016431E001F002000DC
:1000E000210022004C0014001A000800150017001F
:1000F000394204001600070009000A00E1001D61F2
:100100001B00060019000500E000E300E2001150AA
:100110002B002B00230024002500260027002D00A3
:100120001C0018000C00120013002A000B000D0028
:100130000E000F00330034001100100036003700AD
:100140003871DA5C2C002C005000510052004F0036
:100150000100000000000000000000000000C95C79
:10016000CA5CC85C005C00000000C75CCB5CC65C7D
:1001700000000000E100CD5C0000CC5C000000004D
:100180000100E000E20001002B002B002E00000027
:100190005400550056004C0000005F0060006100F4
:1001A00057002A0055005C005D005E0085000000DD
:1001B000000059005A005B006700DA5C62006200D0
:1001C000000063000000000000003A003B003C001B
:1001D0003D003E0000004A0052004D0000000000BB
:1001E0000000500051004F0000000000000000001F
:1001F00000000000000000000000000000000000FF
:10020000000000003F0040004100420043000000A9
:1002100000004A0052004D0046004B000000500014
:1002200051004F0049004E00000000000000000097
:1002300000000000000000000000000000000000BE
:1002400035021E021F0220022102220235021E0276
:100250001F022002210222024C003A003B003C0017
:100260003D003E00C15C40004100010043004400ED
:10027000010001000100010001000100230224022D
:100280002502260227022A00230224022502260232
:1002900027024C003F002D022E022F0230023102B5
:1002A0004500320264024A004D00010001000100D5
:1002B000AB00AA00A900AE0000047F3F1F64321407
:1002C000643214783C1E1E140A0522232526282990
:1002D0002A2C2D2F3032333536383A3B3D3E4042C2
:1002E000434547494A4C4E5051535557595A5C5E05
:1002F0006062646668696B6D6F71737577797B7D19
:100300007F81838587898A8C8E90929496989A9C17
:100310009E9FA1A3A5A7A8AAACAEAFB1B3B4B6B82F
:10032000B9BBBCBEBFC1C2C3C5C6C7C9CACBCCCD91
:10033000CED0D1D2D2D3D4D5D6D7D7D8D9D9DADA6C
:10034000DBDBDBDCDCDCDCDCDDDDDDDDDCDCDCDCEC
:10035000DCDBDBDBDADAD9D9D8D7D7D6D5D4D3D220
:10036000D2D1D0CECDCCCBCAC9C7C6C5C3C2C1BFFE
:10037000BEBCBBB9B8B6B4B3B1AFAEACAAA8A7A562
:10038000A3A19F9E9C9A98969492908E8C8A89871E
:100390008583817F7D7B79777573716F6D6B6968FC
:1003A000666462605E5C5A5957555351504E4C4AD0
:1003B0004947454342403E3D3B3A3836353332307B
:1003C0002F2D2C2A292826252322FFAA7F554000DD
:1003D0000101010101010101010202020202020206
:1003E00002020303030303030303040404040404D9
:1003F000040505050505060606060607070707079F
:1004000008080808090909090A0A0A0B0B0B0C0C51
:100410000C0D0D0D0E0E0E0F0F0F101011111112ED
:100420001213131414151516161717181819191A6C
:100430001A1B1B1C1D1D1E1E1F20202122222324CF
:1004400024252626272829292A2B2C2D2D2E2F300E
:10045000313232333435363738393A3B3C3D3E3F22
:10046000404142434445464748494A4C4D4E4F500F
:10047000515354555658595A5B5D5E5F61626465CD
:100480006668696B6C6D6F7072737577787A7B7D57
:100490007E8082838587888A8C8E8F9193959698AB
:1004A0009A9C9EA0A2A3A5A7A9ABADAFB1B3B5B7C7
:1004B000BABCBEC0C2C4C6C9CBCDCFD1D4D6D8DB9E
:1004C000DDDFE2E4E7E9EBEEF0F3F5F8FAFDFF2A11
:1004D0000354006800650020004E0079007100752B
:1004E0000069007300740020004B00650079006211
:1004F000006F0061007200640000000E034B006595
:10050000006500620069006F00000004030904092F
:10051000023B00020100A0FA0904000001030101EE
:100520000009211101000122400007058103080094
:10053000010904010001030000000921110100016B
:10054000227B000705820320000112010002000047
:10055000000810CB56310003010200010501090219
:10056000A10185020901A100050919012908150049
:1005700025019508750181020501093009311581B0
:10058000257F95027508810609381581257F95011B
:1005900075088106050C0A38021581257F950175BD
:1005A000088106C0C005010980A101850319012A3F
:1005B000B700150126B700950175108100C0050C24
:1005C0000901A101850419012AA002150126A00232
:1005D000950175108100C005010906A101050719E3
:1005E000E029E7150025019508750181029501753F
:1005F0000881010507190029FF150026FF0095064F
:1006000075088100050819012905950575019102F4
:10061000950175039101C00011241FBECFEFDAE0F0
:10062000DEBFCDBF04B603FE18C080913F0390919A
:100630004003A0914103B09142038730904BA74003
:10064000B04B59F410923F031092400310924103B3
:1006500010924203E0E0F8E3099511E0A0E0B1E078
:10066000E2E1F4E602C005900D92AA3EB107D9F787
:1006700023E0AAEEB1E001C01D92AF33B207E1F76B
:100680000E9473170C9407320C9400000E948A2277
:1006900085E00E94F8220E94AD1F4FEF6FEF80E0CF
:1006A0000E94E21C8BE00E94AA1F60E070E0CB0178
:1006B0000E94E00E0C94EC0E81E0089581E0089514
:1006C0000C945E0308950C9462031F93CF93DF9301
:1006D00000D000D01F92CDB7DEB749835A836B8319
:1006E0003091ED0189819A81311114C0662359F04E
:1006F000222349F00E94260A182F682F89819A81A7
:100700000E94CD0903C00E94F909182F69817A81DE
:10071000812F04C00E94260A69817A810F900F9070
:100720000F900F900F90DF91CF911F910C944C116F
:10073000FC01262F408151816281738184810C9458
:10074000650381E00895CF93DF93EC0160E00E94A0
:100750009803BE01DF91CF910C9463030C94C212F5
:100760000C94BE1208950E9477080E94B2032FEFE6
:1007700084E39CE0215080409040E1F700C00000FD
:100780000C94EF290F931F93CF93DF938C0161E0BB
:100790000E949803EC01B8010E946003882309F4C9
:1007A0004BC0B801CE010E94FE22882309F444C048
:1007B000B801CE010E9428268823F1F1B801CE01AC
:1007C0000E943C248823C1F1B801CE010E948425F7
:1007D000882391F1B801CE010E943821882361F16C
:1007E000F8018281882309F1CB358DE5D807C1F066
:1007F00050F4C115FCE5DF0781F0CF3DDC45A9F4DD
:100800000E94500F19C0CC35EDE5DE0761F0CD3503
:10081000DD4559F40E94A00E08C00E94B3030CC02D
:100820000E94A90E02C00E94AC0EC801DF91CF91B8
:100830001F910F910C945C0380E0DF91CF911F9189
:100840000F9108950E94082980E00E9433230C94A0
:1008500040040E9422220E9443040C940E29089511
:100860000C942F0481E008950C9432040895CF93E2
:10087000C82F0E9430048C2F0E943404CF91089519
:1008800080E00C9437040E9446280C9437040E94A0
:1008900046289091EC01891721F08093EC010C948B
:1008A00037040895CF93DF93CDB7DEB72B970FB6FC
:1008B000F894DEBF0FBECDBF4F83588769877A8714
:1008C0008B8761110E94EC0D9E012F5F3F4F86E0E8
:1008D000F90111928A95E9F785E0FE013796D90171
:1008E00001900D928A95E1F789819A814C815D8111
:1008F000452B31F09F3F31F491E08F3F19F403C055
:1009000091E001C090E090FF09C049815A816B815C
:100910007C818D819E810E940D0D05C0C9010E94C0
:10092000A1038111F2CF2B960FB6F894DEBF0FBE54
:10093000CDBFDF91CF910895FC01808191810E940C
:10094000680A0895CF93882309F4A4C0C82F823879
:10095000C1F40E94462881FD9DC069E38091020197
:10096000909103010E94E0280E940E0E2FEF81EE6D
:1009700094E0215080409040E1F700C0000069E31E
:1009800019C0833801F50E94462880FD83C063E5C5
:1009900080910201909103010E94E0280E940E0EB6
:1009A0002FEF81EE94E0215080409040E1F700C0AD
:1009B000000063E580910201909103010E94E2280A
:1009C000CF910C940E0E8438C1F40E94462882FD0B
:1009D00061C067E480910201909103010E94E028C8
:1009E0000E940E0E2FEF81EE94E021508040904047
:1009F000E1F700C0000067E4DDCF8CEF8C0F813A97
:100A0000D0F46C2F80910201909103010E94AA28DA
:100A1000882349F06C2F80910201909103010E947C
:100A2000E2280E940E0E6C2F80910201909103012A
:100A30000E94E028C5CF80E28C0F883048F4C77050
:100A400081E001C0880FCA95EAF70E94CF0DB8CFA8
:100A5000EBE5EC0FE33040F4F0E0ED57FE4F808122
:100A600090E0CF910C947228E8E5EC0FE73150F458
:100A7000F0E0EE0FFF1FEB5AFE4F80819181CF9186
:100A80000C948828CD3E30F08C2F0E94F817CF911F
:100A90000C94CA18CF910895882309F464C0823851
:100AA00079F40E94462881FF5EC069E380910201CB
:100AB000909103010E94E0280E940E0E69E310C08D
:100AC0008338B1F40E94462880FF4DC063E58091D1
:100AD0000201909103010E94E0280E940E0E63E53E
:100AE00080910201909103010E94E2280C940E0E65
:100AF000843879F40E94462882FF35C067E48091EB
:100B00000201909103010E94E0280E940E0E67E40A
:100B1000E7CF9CEF980F913A10F4682FE1CF90E265
:100B2000980F983050F4877091E001C0990F8A9522
:100B3000EAF7892F0E94D50DD9CF9BE5980F933006
:100B400020F480E090E00C94722898E5980F97319B
:100B500020F480E090E00C9488288D3E20F00E94E4
:100B600053180C94CA1808951F93CF93DF93182F2E
:100B7000EB010E94A204209741F08FE99FE00197CA
:100B8000F1F700C000002197F6CF812FDF91CF91C0
:100B90001F910C944C05893319F060E070E002C09D
:100BA00060E570E00C94B405882321F00E94CF0D1D
:100BB0000C940E0E0895882321F00E94D50D0C94FC
:100BC0000E0E0895CF92DF92EF92FF920F931F9334
:100BD000CF93DF937C01D62FC72FFC0112810581B3
:100BE00002950F700E94C50D8823B9F01123A9F05A
:100BF0008C2F807F803421F080E28D0F883068F068
:100C00008091ED0282FD09C082E00E946E0E0E947A
:100C1000C50D91E0D82ED92601C0D12CCC2EC2947E
:100C20008FE0C8228C2D90E08C30910508F0CFC168
:100C3000FC01EA5AFF4F0C9459318C2F807FCF7002
:100C4000882311F0C295C07F112399F0CC2309F4B9
:100C5000AAC180E28D0F883010F0D11104C08C2F12
:100C60000E94CF0D03C08C2F0E94DF0D0E940E0E3C
:100C70009AC18D2F0E944C05CC2309F4A8C180E2B3
:100C80008D0F883038F1DD2329F18C2F0E94E50D7E
:100C900024C08C2F807FCF70803211F0C295C07F2E
:100CA000DD2319F0D130A1F13DC08091ED0282FF2A
:100CB00017C0112349F0CC2329F08C2F0E94CF0DAF
:100CC0000E940E0E80E070C180E00E944C05CC2393
:100CD00009F47DC18C2F0E94D50D0E940E0E77C1A4
:100CE000112371F0002341F0013031F40E94EF0D27
:100CF0008C2B0E94F70D6BC10E94EF0D8C2B1DC039
:100D0000002319F0013009F462C10E94040E25C0CD
:100D1000112321F0063008F05AC10EC0053008F04A
:100D200056C11BC0112361F0002331F0F70185810A
:100D300080FF39C18F7085838C2F0E94D40547C1F5
:100D4000002359F0D93309F03FC1FFEF07EE13E05C
:100D5000F15000401040E1F735C18C2F0E94DB05B7
:100D600036C18C2F86958695837019F0813061F09D
:100D70002EC1112321F08D2F9C2F937002C080E093
:100D800090E00E9472282BC1112321F08D2F9C2FFF
:100D9000937002C080E090E00E94882820C18D2FCF
:100DA000112319F00E94F81702C00E9453180E94E4
:100DB000CA1815C18C2F837009F047C011110BC1DF
:100DC0002D2F229526952770220F220F6D2F6F70E1
:100DD000862F90E0A0E0B0E0022E04C0880F991F9B
:100DE000AA1FBB1F0A94D2F7D4FF10C04FE050E0F7
:100DF00060E070E004C0440F551F661F771F2A95FE
:100E0000D2F7409550956095709503C040E050E052
:100E1000BA01C695C695C3708A019B01082B192B90
:100E20002A2B3B2BC901B801C23049F058F4C1301C
:100E300019F00E94E308CFC00E94D108CCC00E94E4
:100E4000F508C9C00E94CF08C6C0112319F08C2F25
:100E5000817001C08695882309F4BDC02D2F22958D
:100E600026952770220F220F6D2F6F70862F90E02E
:100E7000A0E0B0E0022E04C0880F991FAA1FBB1F7C
:100E80000A94D2F7D4FF10C04FE050E060E070E069
:100E900004C0440F551F661F771F2A95D2F740954F
:100EA00050956095709503C040E050E0BA01C6953A
:100EB000C695C3708A019B01082B192B2A2B3B2B4B
:100EC000C901B801C23049F058F4C13019F00E948C
:100ED000A80981C00E9496097EC00E94BA097BC001
:100EE0000E94090978C0CF70112339F08C2F0E941D
:100EF0002F098D2F0E94D4056EC08D2F0E94DB0517
:100F00008C2F0E94500967C0D23F21F128F4D03FB6
:100F100041F0D13FC1F043C0D33F19F1D43F79F044
:100F20003EC0112341F0053008F051C08C2F8F7165
:100F30000E9475094CC0063008F049C0F7CF809177
:100F4000ED0282FF18C0112339F08C2F8F710E949F
:100F50002F093DC01123C9F38C2F8F710E945009B6
:100F600036C0112329F08C2F8F710E941A092FC0CF
:100F70000E9415092CC0112349F0CF718C2F0E94BB
:100F80002F0963E08C2F0E94530E21C081E00E9444
:100F90006E0E0230E0F082E00E946E0E18C0112347
:100FA00031F0002391F28D2F0E94A20410C0002383
:100FB00099F2D93349F41FEF27EE33E01150204066
:100FC0003040E1F700C000008D2F0E944C0588EFF3
:100FD0008C0D843020F40E9446280E943704DD20C6
:100FE000C9F00E94C10D80FD15C0F70112820E9458
:100FF000BB0D0E942F09C7010E942B080E94BB0D48
:10100000DF91CF911F910F91FF90EF90DF90CF90E4
:101010000C945009DF91CF911F910F91FF90EF90A9
:10102000DF90CF9008950F931F93CF93DF93EC0140
:10103000688179818A810E94730A8C010E94CC099F
:101040000E94BD08B801CE010E94E205DF91CF9158
:101050001F910F910895CF93DF93EC0198818981BF
:101060002B813C81232B31F08F3F31F481E09F3F76
:1010700019F403C081E001C080E080FD1DC0CE01F5
:101080000E94C203811110C00E94C50D8823A1F0E7
:101090008A81882389F08091ED0282FD0DC082E073
:1010A000DF91CF910C946E0ECE010E941308CE01F9
:1010B000DF91CF910C94A303DF91CF91089580E04D
:1010C00090E00E94722880E090E00E9488280E94B0
:1010D000EC0D0E940E0E0E94FB190C94CA18809110
:1010E0000201909103010E94E4280C945F080E9481
:1010F000DC0D0C946F0892959F70963079F010F487
:10110000925001C09A50923068F4803F69F018F410
:10111000883E40F409C0843F29F406C0883E20F090
:10112000813F11F080E0089581E00895FC01808105
:1011300091810E94680A0E947B080895CF93DF93F3
:1011400000D000D01F92CDB7DEB70F900F900F9058
:101150000F900F90DF91CF910895CF93DF9300D040
:1011600000D000D0CDB7DEB726960FB6F894DEBF1C
:101170000FBECDBFDF91CF910895089508950C94CF
:10118000BE080C94BF080E94C10860931A027093B5
:101190001B0280931C0290931D020C945F080C9418
:1011A000C3080F931F9300911A0210911B02209104
:1011B0001C0230911D02602B712B822B932B1F91EF
:1011C0000F910C94C3080F931F9300911A02109172
:1011D0001B0220911C0230911D0260237123822387
:1011E00093231F910F910C94C3080F931F930091A9
:1011F0001A0210911B0220911C0230911D026027DF
:101200007127822793271F910F910C94C3080C9488
:10121000BE080E940709609316027093170280931C
:101220001802909319020C945F0860E070E0CB0103
:101230000C9409090F931F9341E050E060E070E0C7
:101240008A019B0104C0000F111F221F331F8A95C2
:10125000D2F7C901B8011F910F910C9409090F939E
:101260001F9341E050E060E070E004C0440F551F60
:10127000661F771F8A95D2F7809116029091170208
:10128000A0911802B09119028A019B01082B192B19
:101290002A2B3B2BC901B8011F910F910C9409090E
:1012A0000F931F9341E050E060E070E004C0440FF2
:1012B000551F661F771F8A95D2F740955095609508
:1012C00070958091160290911702A0911802B0912A
:1012D00019028A019B01082319232A233B23C901F0
:1012E000B8011F910F910C9409090F931F9341E0CE
:1012F00050E060E070E004C0440F551F661F771F88
:101300008A95D2F78091160290911702A091180247
:10131000B09119028A019B01082719272A273B2728
:10132000C901B8011F910F910C9409090F931F93E4
:1013300000911602109117022091180230911902A3
:10134000602B712B822B932B1F910F910C94090909
:101350000F931F930091160210911702209118020B
:101360003091190260237123822393231F910F91DF
:101370000C9409090F931F93009116021091170204
:101380002091180230911902602771278227932734
:101390001F910F910C9409090895292F220F920F84
:1013A000990F890FE82FE695E695E695877051E04D
:1013B00001C0550F8A95EAF785E0E89FF0011124F6
:1013C000E251FE4F20E030E070E04081CB01022E80
:1013D00002C0969587950A94E2F7817081958427DB
:1013E0008523842781932F5F3F4F2530310569F78F
:1013F0000895292F220F920F990F890F682F669554
:1014000066956695982F977085E0689FB0011124C6
:1014100040E050E080E0FB01E40FF51FE251FE4F99
:10142000208130E0092E02C0369527950A94E2F714
:1014300021703327042E01C0220F0A94EAF7822B71
:101440004F5F5F4F4530510531F70895BF92CF92FE
:10145000DF92EF92FF920F931F93CF93DF938C0154
:10146000C0901602D0901702E0901802F090190276
:1014700080911A0290911B02A0911C02B0911D0252
:10148000C82AD92AEA2AFB2ACFE1D0E0D701C6012F
:101490000C2E04C0B695A795979587950A94D2F718
:1014A00080FD04C0219790F7B12C07C0BC2EB80175
:1014B0008C2F0E945F110197A9F38B2DDF91CF91A3
:1014C0001F910F91FF90EF90DF90CF90BF90089504
:1014D000CF93DF93EC010E94260ABE010E945F11A8
:1014E000DF91CF9108951F93CF93DF93EB019091FC
:1014F000ED01992321F0CB010E94680A13C08823D3
:1015000049F0CB010E94260A182F682FCE010E94B5
:10151000CD0904C0CB010E94F909182FBE01812F0B
:101520000E945F11DF91CF911F9108951F93CF9378
:10153000DF93C0911E0216E080911F02C81799F038
:10154000D0E01C9FF0011D9FF00D1124E05EFD4FC7
:101550004081518162817381848195810E94AD08AF
:101560002196C770E9CFDF91CF911F9108954091E7
:101570005002509151026091520270915302809139
:101580005402909155020C94AD08EF92FF920F9384
:101590001F93CF93DF938091550282958F7009F04E
:1015A00065C080915202882309F460C080911E02B8
:1015B000F0901F021091500200915102609153026D
:1015C0007091540291E01F3F09F090E0C09100013A
:1015D000D0910101292F96E0E92E8F1509F446C01C
:1015E0006115710521F00F3F21F030E003C031E0BB
:1015F00001C0322F90E030FD36C0E89EF001E99E38
:10160000F00D1124DF01A05EBD4F11963C911197A2
:10161000301329C03C91311326C012963C91129789
:10162000311121C013964D915C911497461B570BB5
:101630004C175D07C0F4809155028F7080618093D4
:101640005502EB5DFD4F80818F708061808380E566
:1016500092E00E942B08DF91CF911F910F91FF9094
:10166000EF900C94960A01968770B7CFDF91CF91D7
:101670001F910F91FF90EF9008959F92AF92BF92AC
:10168000CF92DF92EF92FF920F931F93CF93DF934E
:10169000CDB7DEB761970FB6F894DEBF0FBECDBFF2
:1016A0008C0185E0F801DE011D9601900D928A956E
:1016B000E1F7D8011296EC9090915002E09151021E
:1016C00020915302309154022115310531F0EF3F42
:1016D00031F481E09F3F19F403C081E001C080E054
:1016E000B82FB1709B2E80FD47C1D8014C91119647
:1016F0005C9111971396AD90BC90149780E5C82E1D
:1017000082E0D82EF0905202B501621B730B20913B
:10171000000130910101FF2009F4D9C080915502E8
:101720006217730708F095C0282F207F09F052C078
:101730005E1313C0491311C0FE2CE1100EC08F7050
:101740008061809355020E94B70AC6010E942B084F
:1017500080915502F80185834DC1AB2831F05F3F80
:1017600031F481E04F3F19F403C081E001C080E013
:1017700080FD03C081E08E2502C080E090E0F82F5C
:10178000F170FF2E80FF1CC080911E0220911F026D
:1017900036E0821709F40BC190E0389FF001399FC1
:1017A000F00D1124E05EFD4F6181561306C060818B
:1017B000461303C06281E61203C001968770E9CF29
:1017C000FE2CEE2009F416C18091550281608093B1
:1017D000550254C05E1306C0491304C0E11002C094
:1017E000F80199C0C8010E949608882361F1EE2093
:1017F00051F120915502822F82958F7090E00297CF
:1018000074F0809150029091510298878F831986CD
:10181000BB86AA862C87CE0107960E942B0886E0FD
:10182000F801A0E5B2E001900D928A95E1F70E94DF
:10183000C50A0E94B70A0AC05E1711F1C8010E94CA
:10184000960881112CC0C8010E942B08FF24F39434
:10185000D1C0282F207F81F77A2DB98AA88A6E2DD2
:1018600089890E949E0880E592E00E942B0886E00C
:10187000D6011D928A95E9F70E94B70AF12CBAC0E9
:101880004913DCCFE110DACFF8018583C8010E944B
:101890002B0886E0D6011D928A95E9F7ABC0EE20B1
:1018A00091F220915502822F82958F7090E00297DD
:1018B0000CF4B5CF80915002909151029A838983A4
:1018C0001B82BD82AC822E83CE010196A6CF621709
:1018D000730708F044C0FE2CEE2009F4B4CF5E1369
:1018E00030C049132EC02091550220FD21C0822F07
:1018F00082958F70482F50E041155105C9F0F801CD
:1019000025834F30510541F08F5F982F9295907F3E
:10191000822F8F70892B8583C8010E942B0886E057
:10192000F801A0E5B2E001900D928A95E1F73CC084
:1019300086E0F801A0E5B2E001900D928A95E1F70A
:1019400059C0C8010E949608811169CF8091550243
:10195000816080935502C8010E942B084BC07A2DEC
:10196000B98AA88A6E2D89890E949E0886E0D601D0
:101970001D928A95E9F718C0EE2009F464CFC801DA
:101980000E949608F82E882309F45DCF86E0F801BE
:10199000A0E5B2E001900D928A95E1F780E592E032
:1019A0000E949C040E94C50A0E94B70A23C04D876A
:1019B0005E878D859E850E94680A292F22952F704B
:1019C000223028F49F7039F0811105C00BC02430FB
:1019D00028F49F7049F4805E883020F0C8010E948E
:1019E0002B089F2CF92C06C0D80115969C91907F4E
:1019F00091F7F8CF8F2D61960FB6F894DEBF0FBE2A
:101A0000CDBFDF91CF911F910F91FF90EF90DF90AD
:101A1000CF90BF90AF909F9008951F93CF93DF9387
:101A2000CDB7DEB72C970FB6F894DEBF0FBECDBF93
:101A30004F83588769877A878B879C87CE01079663
:101A40000E943D0B8823D1F09F8188852A853B85A4
:101A5000232B31F08F3F31F481E09F3F19F403C015
:101A600081E001C080E080FD47C04F8158856985D5
:101A70007A858B859C850E94AD083EC086E0FE017C
:101A80003796DE01119601900D928A95E1F7FF815C
:101A9000E8856A857B856115710531F0EF3F31F48A
:101AA00081E0FF3F19F403C081E001C080E080FDC8
:101AB00023C020911F0230E0C90101968770992749
:101AC00040911E0250E084179507F1F1F983EA83F3
:101AD0007D836C8396E0929FD001939FB00D11247B
:101AE000A05EBD4FFE01319601900D929A95E1F7EF
:101AF00080931F020E94960A16E080911E02909128
:101B00001F02891771F1189FC0011124805E9D4F3B
:101B10000E943D0B882329F1E0911E021E9FF001D7
:101B20001124E05EFD4F4081518162817381848187
:101B300095810E94AD0880911E0290E00196877009
:101B4000992780931E02D9CF0E94770810921F0216
:101B500010921E02E0E5F2E086E0DF011D928A9518
:101B6000E9F72C960FB6F894DEBF0FBECDBFDF911C
:101B7000CF911F91089580915E02859585958595F9
:101B8000089580915E028770089590915E0297702B
:101B900081E009F480E008958091690208959091B0
:101BA0006902892B8093690208958095909169025A
:101BB0008923809369020895109269020895909193
:101BC0006802892B8093680208958095909168023D
:101BD0008923809368020895109268020895809185
:101BE0005F02089508950C94F20D0C94F30D9091FA
:101BF000ED0292FD08C090915F02981721F080934A
:101C00005F020C94F50D089580915F02882329F0FE
:101C100010925F0280E00C94F50D0895CF93DF934E
:101C2000E0910201F0910301809169028083E091CB
:101C30000201F0910301908180916802892B8083D9
:101C400080915F02882381F0E0910201F09103010D
:101C50009081892B808380910201909103010E94E1
:101C60009E2881110E94040EC0910201D0910301AF
:101C700048E050E066E572E0CE010E94A931892B70
:101C800069F088E0FE01A6E5B2E001900D928A9528
:101C9000E1F7CE01DF91CF910C945928DF91CF91DC
:101CA00008950C94F20D9091ED0292FD10C098E011
:101CB000899F90011124262B20935E020E942F09F8
:101CC00080915E028595859585950C94510E0C94B6
:101CD0002F0910925E0280E00C94510E20915E025A
:101CE0008095822380935E02982F977099F430E05C
:101CF000482F082E000C550B2417350759F09091EA
:101D0000ED0292FD07C08595859585950E94500945
:101D10000C94690E08959091ED0292FB222720F910
:101D2000281769F080FB92F99093ED028091EC0204
:101D30009091ED020E94D30E82E00C946E0E0895F5
:101D40008091ED0282FB882780F991E089270C942D
:101D50008B0E81E00C948B0E80E00C948B0E80E057
:101D600090E00E94CD3121E0893E9E4F09F020E0B5
:101D7000822F089582E090E00C94BF3183E090E0E0
:101D80000C94BF31CF9384E090E00E94BF31C82F04
:101D900082E290E00E94BF312C2F30E0A901582B45
:101DA000CA01CF910895CF93C92F682F84E090E0A6
:101DB0000E94D3316C2F82E290E0CF910C94D3310A
:101DC000AB01BC018FE090E00C94E531AB01BC01AC
:101DD00083E190E00C94E53160E070E0CB010C947D
:101DE000E60E69EE7EEF80E090E00E94F13160E067
:101DF00082E090E00E94D33160E083E090E00E94B6
:101E0000D33110921A0210921B0210921C021092EF
:101E10001D0260E084E090E00E94D33160E082E245
:101E200090E00E94D33160E085E090E00E94D331E1
:101E300060E086E090E00E94D3316FEF87E090E0B1
:101E40000E94D33140E050E0BA0188E090E00E9467
:101E5000E53160E08DE090E00E94D33140E050E059
:101E6000BA0188E190E00E94E53160E087E190E00E
:101E70000E94D33140E050E0BA018CE190E00E9432
:101E8000E53160E070E080E290E00E94F13140E0F6
:101E900050E0BA0188E190E00E94E5310C944603DD
:101EA0000C94F10E682F8EE090E00C94D3310E94D8
:101EB0009229609378027093790280937A029093CA
:101EC0007B02609374027093750280937602909304
:101ED0007702089585B7806885BF85B7806885BF1C
:101EE00008950C947D1408950C94730F0C94730F43
:101EF0000C94760F0C94730F0C947A0F0C94730F50
:101F00000E946A0F85E892E10E943C280E947E0FA1
:101F10000C947C0F0E94740F0C94730F0E94881213
:101F20000E9436040C94E9230E947D290E943B12F2
:101F30000E9495140E94C7130E948E0F0E942424B1
:101F40000E9422220E9428200E94A9140C94780F3B
:101F50008F929F92AF92BF92CF92DF92EF92FF92B9
:101F60000F931F93CF93DF93CDB7DEB72A970FB6AA
:101F7000F894DEBF0FBECDBF0E94EB13982E8111E7
:101F80000E94570F8AE6A82E82E0B82E00E010E0EB
:101F9000802E802F0E94AC12D82EF501C1905F01D7
:101FA000C826B1F40F5F1F4F0A30110589F78FEF74
:101FB00089838A831B820E9486298160782F9D8372
:101FC0008C8349815A816B818D810E9452042FC07C
:101FD00080917C0281FD0E94B212E12CFF24F394D7
:101FE0008C2D8F21F1F00E94710F882399F0EE82E1
:101FF0008F82DF2081E009F480E088870E948629B3
:102000008160782F9A8789874E815F8168858A856C
:102010000E945204F801E659FD4F8081F826F082B3
:1020200006C0E394FF0CF6E0EF12DACFBBCF81E0FD
:10203000911001C080E02A960FB6F894DEBF0FBE63
:10204000CDBFDF91CF911F910F91FF90EF90DF9067
:10205000CF90BF90AF909F908F9008950E94A80F4F
:102060000E947D140E9460200E94E8230E94E818CC
:102070000C944704CF93DF930E946411EC01811507
:1020800021E5920708F045C0811530E5930708F077
:1020900094C0883E910528F5803E910508F0F8C06F
:1020A000883A910570F4853A910508F07CC081303A
:1020B000910509F475C008F4E8C0049708F0E8C079
:1020C000E4C08F3B910508F0E0C0C85AD0E0CC0FC7
:1020D000DD1FCA57DE4F0990D881C02DCE01946410
:1020E000D8C0811540E2940758F4811551E0950756
:1020F00008F0CEC08D3E910508F4C7C09065C9C0F8
:10210000C11580E4D80708F4C0C0DF70CE01906A22
:10211000C0C0811525E59207A8F4811534E5930721
:1021200008F095C0811543E5940708F07BC0811540
:1021300052E5950708F061C0D82FCC27CE01816FFA
:10214000906AA7C0C11589E5D807A0F4C11528E594
:10215000D20708F082C0C11536E5D30708F095C054
:102160008C2F0E94F8118F7190E0D82FCC27CE01D0
:1021700090628FC0C1154AE5D40708F474C0CE013F
:1021800090568115904208F080C08D2F8F710E946B
:10219000F811DD27D0628F71AE01582BCA0179C0CA
:1021A00081E090E076C0C55AD0E0CC54DE4F888103
:1021B000C82FD0E0CE0190646CC074E096958795EE
:1021C0007A95E1F7282F23703C2F337081E090E05F
:1021D00002C0880F991F3A95E2F79C68AC01522B18
:1021E0009A019C2F9F709695969550E2959FE001DD
:1021F0001124C9018C2B9D2B4CC08370992721E0A1
:1022000030E002C0220F331F8A95E2F79C2F96958B
:10221000969580E2989FE0011124C22BD32BCE012A
:102220009C6837C08370992721E030E002C0220FFC
:10223000331F8A95E2F79C2F9695969540E2949FDE
:10224000E0011124C22BD32BCE019A6822C0D82FD3
:10225000CC27CE01846F906A1CC0DC2FCC27CE0126
:10226000806F906A16C08C2F8F700E94F81194E0D6
:10227000D695C7959A95E1F7CF70D0E0DC2FCC27A3
:10228000D0699E01282BC90104C080E090E001C004
:10229000CE01DF91CF9108952CE3829FC0011124DC
:1022A000FC0126E0729FE00DF11D1124E60FF11DE7
:1022B000EE0FFF1FE852FF4F8591949108950E9401
:1022C0004C110E943A1008958238910569F1B0F4DA
:1022D0008133910509F46DC048F48932910509F400
:1022E00063C08A32910509F469C008958533910568
:1022F00009F455C089339105B9F00895833E9105DD
:1023000069F138F4803E9105B1F0823E910509F102
:102310000895863E9105A9F1873E9105B9F1843E65
:10232000910509F064C023C02091EC0220FD4FC04C
:1023300021FD4DC008958091EC0280FD44C0809144
:10234000ED0280FF44C08091EC0284FD42C083EE28
:102350004DC08091EC0282FF38C0F5CF8091EC0235
:1023600082FD33C08091ED0280FD31C0ECCF8091C1
:10237000ED0281FF32C08091EC0284FD2AC087EE1D
:1023800035C08091EC0283FF26C0F5CF8091EC022E
:1023900083FD21C08091ED0281FD1FC0ECCF8091B3
:1023A000EC0285FD1CC01DC08091EC0285FD19C0AA
:1023B00016C08091EC0286FD16C017C08091EC0219
:1023C00086FD13C010C089E311C082EE0FC080EEFD
:1023D0000DC080E00BC086EE09C084EE07C089E224
:1023E00005C085E303C08AE201C081E390E008955F
:1023F0009091EC0292FF0DC0282F2871283019F41B
:10240000877F846006C0282F2471243011F48B7FCD
:10241000886093FF0DC0282F2871283119F4877E1A
:10242000846106C0282F2471243111F48B7E8861C9
:102430002091ED0220FF0DC0382F3871383019F48B
:10244000877F816006C0382F3171313011F48E7F63
:10245000886021FF0DC0282F2871283119F4877E4C
:10246000816106C0282F2171213111F48E7E88618F
:1024700094FD877E08951092E8021092E90210926E
:10248000EA021092EB020895CF92DF92EF92FF9250
:102490006B017C010E947D1481110EC00E94922963
:1024A000C61AD70AE80AF90AC092E802D092E902ED
:1024B000E092EA02F092EB02FF90EF90DF90CF9073
:1024C00008950F931F930E947D14882321F01F917C
:1024D0000F910C9492290E9492290091E802109188
:1024E000E9022091EA023091EB02600F711F821F16
:1024F000931F1F910F9108950E947D1481110C94D8
:1025000086290E946112CB01089580E00895089504
:102510000E94AF0E811102C00E94500F0E94BA0E9D
:1025200080937C020E94C20E9093ED028093EC0295
:102530000E9487120E94BE0E682F70E080E090E03B
:102540000E94CF08609116027091170280911802C4
:10255000909119020C940709E82FF0E0E750FD4F25
:1025600080810895089580EA8A95F1F7089500C062
:1025700008950C94B31208950C94BB120C94BC12E1
:102580000C94BB120C94C0120C94BB12FF920F93CC
:102590001F93CF93DF9300D000D01F92CDB7DEB74B
:1025A0000E947D14609103038823E9F185E0F82EF1
:1025B0008E010F5F1F4FF8018F2D11928A95E9F759
:1025C000862F90E0B80187509D4F0E94B714882352
:1025D00089F08091EE0290E045E050E0B80187502C
:1025E0009D4F0E94A93121E020937D02892B61F447
:1025F00010E016C080917D028823D1F3F80111927A
:10260000FA94E9F710927D02A091EE02B0E0A75093
:10261000BD4F85E0F80101900D928A95E1F711E038
:102620000E94B0030DC070E067507D4F8091EE02B4
:1026300090E087509D4F0E9441150E94C41210E007
:10264000812F0F900F900F900F900F90DF91CF91EF
:102650001F910F91FF900895F894E82FE295EF7085
:10266000F0E031A1282F2F7081E090E001C0880FA9
:102670002A95EAF7982F9095932391A392A1892BFD
:1026800082A3789408950F931F93CF93DF93CDEB9C
:10269000D1E089918F3F11F00E942C1381E0C23C60
:1026A000D807B9F7C7EBD1E00DEB11E089918F3F67
:1026B00011F00E942C130C171D07C1F7DF91CF9169
:1026C0001F910F910895CF92DF92EF92FF920F9397
:1026D0001F93CF93DF938C01C62FD0E0CE0183549C
:1026E0009E4F7C01FC0190819F3F09F447C0D62E8C
:1026F000F894E92FE295EF70F0E081A19F7021E05E
:1027000030E001C0220F9A95EAF7822B81A382A1C3
:102710002095282322A378940E94B712E7EBF1E0DA
:102720004DEB51E031E0C12C21912F3F89F0A22FD8
:10273000A295AF70B0E090968C9190E02F7002C09F
:10274000959587952A95E2F780FD02C0832F01C0F9
:1027500080E0C82A330F4E175F0731F7F7018081F9
:102760008F3F11F00E942C1361E0C11001C060E0A6
:102770008D2D0E94B912C00FD11FC882DF91CF9159
:102780001F910F91FF90EF90DF90CF90089580916F
:10279000040180910401811102C095E001C090E024
:1027A0009093030385E0891B8093EE020E944313FC
:1027B0008AE0E9EFF2E0DF01982F1D929A95E9F7A0
:1027C000EFEEF2E0DF011D928A95E9F785E00E94C5
:1027D0003F140C94AE03EF92FF920F931F93CF938D
:1027E000DF93CDB7DEB72A970FB6F894DEBF0FBEE2
:1027F000CDBF8E010F5F1F4F8AE0F80111928A95BD
:10280000E9F7F12C6F2DC8010E946313F394F5E0F2
:10281000FF12F8CF4AE050E0B8018FEE92E00E943C
:10282000A9317C0121E0892B09F420E0E114F104B5
:1028300041F08AE0F801AFEEB2E001900D928A9586
:10284000E1F76091030370E067507D4F45E08FEE44
:1028500092E00E944014EF2819F40E94C61202C0B0
:1028600081E090E02A960FB6F894DEBF0FBECDBF90
:10287000DF91CF911F910F91FF90EF9008950895F0
:10288000FF920F931F93CF93DF938C01F62ED72FD8
:10289000C42F222349F081E0809380020E94862980
:1028A00090937F0280937E02809180028823C1F002
:1028B00080917E0290917F020E949E29059780F070
:1028C000EF2DFD2FD8014C2F50E0CD01801B910B37
:1028D000841795071CF48D918193F7CF1092800295
:1028E000DF91CF911F910F91FF90089555985D98BA
:1028F00089B185FB882780F9089580918302811131
:102900000DC00E94E430811102C082E001C081E06C
:1029100080938302823011F40E94DF3081E0909135
:102920008302913009F080E008950E94761480932C
:1029300004018091040166E0882311F080E001C069
:1029400086E00E949E1A0E947D1481110C94EF145F
:1029500008950E947D14811102C00C94F114089511
:1029600081E0909184029A3008F080E008950F93FE
:102970001F93CF93DF93EC018B01809184028A3007
:1029800038F4B801CE010E943F1581111DC00AC064
:1029900080918102909182020E949E29843F914001
:1029A00080F715C0809184028F3F19F08F5F80936C
:1029B0008402809184028A3060F00E94862990937C
:1029C00082028093810203C01092840202C080E0E0
:1029D00001C081E0DF91CF911F910F9108950C9478
:1029E000D5260C94D826DF92EF92FF920F931F9377
:1029F000CF93DF937901C82F880FDD0B4115510567
:102A0000A9F0FE0193E0EE0FFF1F9A95E1F7EB5F4F
:102A1000FE4F818192818B579D4F208130E042177C
:102A2000530708F49A01A9010E94B631CE010E9411
:102A3000C127D82E8823D1F001151105B9F083E004
:102A4000CC0FDD1F8A95E1F7FE01EB5FFE4F43815E
:102A500050E00417150708F4A801CB5FDE4F6C8126
:102A60007D816B577D4FC7010E94B6318D2DDF915F
:102A7000CF911F910F91FF90EF90DF9008950C94EC
:102A8000F1160C941D17AF92BF92CF92DF92EF9286
:102A9000FF920F931F93CF93DF93C82F7B01D42F07
:102AA00069015801FB0160817181828193810E94DB
:102AB000AD29643671058105910510F4DD23A1F07F
:102AC00000E010E020E030E0A501B6018C2F0E946C
:102AD000F314C82F882349F00E949229F7016083DC
:102AE00071838283938301C0C1E08C2FDF91CF91EA
:102AF0001F910F91FF90EF90DF90CF90BF90AF901C
:102B000008950F931F93CF93DF93CDB7DEB7289728
:102B10000FB6F894DEBF0FBECDBFCE0101960E9466
:102B20001B1F41E08885811101C040E008E010E0F2
:102B30009E012F5F3F4F6DEA72E084E00E944315D3
:102B4000182F81110E94181F812F28960FB6F89414
:102B5000DEBF0FBECDBFDF91CF911F910F910895C2
:102B60000F931F93CF93DF931F92CDB7DEB70E94D1
:102B70000722882319F00E941C2201C080E089836B
:102B8000E091C201F091C30141E09285981301C028
:102B900040E001E010E09E012F5F3F4F69EA72E0E4
:102BA00083E00E9443150F90DF91CF911F910F9109
:102BB00008950F931F93CF93DF9300D000D0CDB72C
:102BC000DEB76091A5027091A6028091A702909154
:102BD000A8020E94AD29643671058105910528F18E
:102BE0000E946112DC01CB010296A11DB11D8983F7
:102BF0009A83AB83BC8300E010E020E030E044E047
:102C000050E0BE016F5F7F4F82E00E94F314182FE7
:102C1000882361F00E9492296093A5027093A60216
:102C20008093A7029093A80201C011E0812F0F901A
:102C30000F900F900F90DF91CF911F910F910895FA
:102C4000AF92BF92CF92DF92EF92FF920F931F93BA
:102C5000CF93DF937C015B016A010E94B014811164
:102C600003C001E010E002C00AE010E0C1E0D0E0E3
:102C7000F894B501C701F60109957894811115C042
:102C800021960C171D0794F0CC9F9001CD9F300D1D
:102C9000300D112480E090E045E34A95F1F7000003
:102CA000019682179307C1F7E3CF81E0DF91CF91BF
:102CB0001F910F91FF90EF90DF90CF90BF90AF905A
:102CC0000895AF92BF92CF92DF92EF92FF920F934F
:102CD0001F93CF93DF9300D000D000D0CDB7DEB7E5
:102CE0007B01C090C201D090C30101E010E09E01C1
:102CF0002A5F3F4F40E050E060E070E080E00E94DB
:102D0000F314182F882309F43EC056018FEFA81A38
:102D1000B80A6091A1027091A2028091A3029091E1
:102D2000A4020E94AD29643671058105910518F150
:102D300005E010E09E012F5F3F4F40E050E060E073
:102D400070E081E00E94F314182F65E070E0C50187
:102D50000E94252491E02E81281390E0192339F157
:102D60000E9492296093A1027093A2028093A30211
:102D70009093A40211C065E070E0C5010E94252473
:102D80009E818913D5CF85E0F6013196DE0111963B
:102D900001900D928A95E1F7112349F085E0FE013B
:102DA0003196ACE9B2E001900D928A95E1F785E0A9
:102DB000ECE9F2E0D70101900D928A95E1F7812FBD
:102DC00026960FB6F894DEBF0FBECDBFDF91CF9130
:102DD0001F910F91FF90EF90DF90CF90BF90AF9039
:102DE00008950F931F93CF93DF93EC018B0141E67E
:102DF00056E10E9420168823D1F049ED55E1B80133
:102E0000CE010E942016882391F040EB55E1B801D5
:102E1000CE010E942016882351F041E855E1B80107
:102E2000CE01DF91CF911F910F910C94201680E07D
:102E3000DF91CF911F910F9108950F931F93CF931F
:102E4000DF93F894C091C201D091C301CE010196E5
:102E500025E0FB01DC0101900D922A95E1F765E088
:102E600070E00E94252488837894F8946E817F8195
:102E700088859985009198021091990220919A0273
:102E800030919B02601771078207930751F060939E
:102E900098027093990280939A0290939B020E94E9
:102EA00044127894F8948A850E9433237894F89495
:102EB0008A89882331F060E0CE010B960E94F31FCF
:102EC0001A8A7894DF91CF911F910F9108950E94F3
:102ED000A52B0E94940F0C94B12B0E94B52B0E943D
:102EE0002E100C94CF2B0E9424290E948C2B0E9420
:102EF000800F0E9467170E946D170E948A0FFBCFF8
:102F00008091B70280FF06C06091320170E0660FC9
:102F1000771F26C081FF04C06091320184E005C0A4
:102F200082FF07C06091320188E0689FB0011124E0
:102F300017C09091B6029923D1F060913101961794
:102F400088F72091320188E0289F90011124929FF8
:102F5000A001939F500D112470E0CA010E942331FB
:102F60006038710540F46115710519F406C068E018
:102F700070E0862F08958FE7089581E0089580918D
:102F8000B70280FF08C060912E0170E075956795CB
:102F90007595679521C081FF06C060912E0170E094
:102FA0007595679519C082FF04C060912E0170E08D
:102FB00010C09091B502992399F060912D01961758
:102FC000A0F780912E01899FC001112470E00E941A
:102FD00023316038710540F46115710519F406C09C
:102FE00061E070E0862F08958FE7089581E00895ED
:102FF0008D3E21F40E948017819504C08E3E29F4F5
:103000000E9480178093BB0208958F3E21F40E9496
:103010008017819504C0803F29F40E948017809317
:10302000BA020895893F19F40E94BF1705C08A3F6C
:1030300031F40E94BF1781958093BC0208958B3FA5
:1030400021F40E94BF17819504C08C3F29F40E948F
:10305000BF178093BD0208959FE0980F983078F4D1
:1030600021E030E0A90102C0440F551F9A95E2F714
:10307000CA019091B902892B8093B90208958D3FBE
:1030800021F48091B70281600BC08E3F21F48091C2
:10309000B702826005C08F3F29F48091B702846037
:1030A0008093B70208958D3E39F49091BB0297FF4B
:1030B00035C01092BB0259C08E3E29F49091BB02DC
:1030C0001916BCF32BC09091BA028F3E29F497FFDA
:1030D00025C01092BA0249C0803F19F41916CCF3EA
:1030E0001DC09091BC02893F29F41916BCF41092BE
:1030F000BC023BC08A3F19F497FF10C0F8CF8B3F4A
:1031000039F49091BD0297FF09C01092BD022DC005
:103110008C3F21F49091BD021916BCF39FE0980FEB
:10312000983080F421E030E0A90102C0440F551F1F
:103130009A95E2F7CA0180959091B902892380930C
:10314000B90213C08D3F21F48091B7028E7F0BC06E
:103150008E3F21F48091B7028D7F05C08F3F29F407
:103160008091B7028B7F8093B7028091BA02811160
:1031700006C08091BB02811102C01092B6028091FC
:10318000BC02811106C08091BD02811102C0109263
:10319000B50208950E9486292091BA02211104C027
:1031A0002091BB02222321F09093B4028093B302BA
:1031B0002091BC02211104C02091BD02222321F0E4
:1031C0009093B2028093B10288EB92E00C94642851
:1031D000EF92FF920F931F93CF93DF9300D000D015
:1031E00000D0CDB7DEB786E0E8EBF2E0DE01119665
:1031F00001900D928A95E1F7E090BA02F090BB023F
:103200000091BC021091BD021092BA021092BB0252
:103210001092BC021092BD02E11003C0FF2009F41D
:103220005DC08091B3029091B4020E949E29AC01CE
:103230009091B602992339F02091330130E02417A0
:10324000350758F04BC0209134018AE0289F900147
:1032500011242417350718F041C09F3F19F09F5FD4
:103260009093B602EE2061F00E9480171E1414F0B5
:103270009FEF01C091E0989F902D11249093BA0286
:10328000FF2061F00E9480171F1414F09FEF01C00F
:1032900091E0989F902D11249093BB023091BA0237
:1032A0003323E1F02091BB022223C1F045EB34032C
:1032B000C0011124992319F09093BA0203C081E050
:1032C0008093BA0235EB2303C0011124992319F02E
:1032D0009093BB0203C081E08093BB02011103C045
:1032E000112309F45DC08091B1029091B2020E9455
:1032F0009E29AC019091B502992339F020912F01BC
:1033000030E02417350758F04BC0209130018AE097
:10331000289F900111242417350718F041C09F3FC2
:1033200019F09F5F9093B502002361F00E94BF17D0
:10333000101614F09FEF01C091E0989F902D11247A
:103340009093BC02112361F00E94BF17111614F074
:103350009FEF01C091E0989F902D11249093BD02A2
:103360003091BC023323E1F02091BD022223C1F051
:1033700045EB3403C0011124992319F09093BC024A
:1033800003C081E08093BC0235EB2303C00111240C
:10339000992319F09093BD0203C081E08093BD0290
:1033A0008091BA0281110BC08091BB02811107C0CC
:1033B0008091BC02811103C08091BD0281110E94E5
:1033C000CA18EB82FC820D831E8386E0FE013196D3
:1033D000A8EBB2E001900D928A95E1F726960FB620
:1033E000F894DEBF0FBECDBFDF91CF911F910F913B
:1033F000FF90EF900895E8EBF2E086E0DF011D9288
:103400008A95E9F71092B6021092B5021092B702AF
:103410000895EF92FF920F931F93CF93DF938B0149
:10342000682F11110AC0442329F0E82FF0E0E1537E
:10343000FC4F6491762F862F75C0212F30E0E82F46
:10344000F0E0442321F0E153FC4FE491F0E046E04A
:10345000049FC0011124CFEFD0E0BE010E940F31C4
:103460004BEA4603C001479F900D1124800F911D28
:10347000800F911D982F990F890FAE01421B530B9E
:103480004E9FD0014F9FB00D5E9FB00D11249B2F1A
:10349000189FA0011124452F55278E01041B150BE1
:1034A0000E9FA0010F9F500D1E9F500D11247E01F5
:1034B000E81AF108E29E8001E39E100DF29E100DC5
:1034C0001124212F3327C21BD30BCE9F9001CF9FF6
:1034D000300DDE9F300D112462307105A9F048F4E3
:1034E0006115710569F061307105C9F48B2F752F75
:1034F0000DC06430710581F058F06630710579F4C3
:103500007E2F8B2F932F0DC0832F7B2F9E2F09C0D3
:103510008E2F7B2F952F05C08E2F732F02C07E2FED
:10352000852F692FDF91CF911F910F91FF90EF9021
:10353000089541E00E94091A08950895E8E3F1E032
:103540008083618308950E94991A0895CF93DF9331
:10355000762FE901682F842F0E94A31A798368834C
:103560008A83DF91CF91089580910403282F2695B7
:1035700030E02115310519F48170826005C02532D3
:10358000310524F08170886480930403089588E0F5
:1035900090E00C94C731CF92DF92EF92FF926B01D3
:1035A0007C010E94B41AB701A60188E090E0FF9068
:1035B000EF90DF90CF900C94E531E4E0F3E083E00E
:1035C000808311828FEF828383831482ABECB2E01D
:1035D00012968C911297836012968C936081718100
:1035E000828193810C94CB1A8091040380FF02C0E6
:1035F0008695089580E0089590910803933018F41B
:103600009F5F90930803882351F0609104037091A9
:10361000050380910603909107030C94CB1A08953B
:1036200081E00C94FC1A90910803992319F09150B1
:1036300090930803882351F060910403709105036F
:1036400080910603909107030C94CB1A089581E0B2
:103650000C94131B70E00C94F92360913901809154
:10366000040380FF0AC08091380123E0829FC001DB
:103670001124875F9C4F0C942A1B80913A019091F2
:103680003B01891780F7E82FF0E09F01220F331FDD
:10369000E20FF31FE75FFC4F1182108212828F5FEF
:1036A000F0CF9091040390FF16C090913A012091C1
:1036B0003B01921770F4E92FF0E0DF01AA0FBB1F66
:1036C000EA0FFB1FE75FFC4F8183608342839F5FAC
:1036D000F0CF0C942D1B0895CF93DF9300D01F9251
:1036E000CDB7DEB79091040390FF0AC09E012F5F13
:1036F0003F4F0E94A61A4B8169818A810E94511B0B
:103700000F900F900F90DF91CF910895CF93DF939B
:10371000EC01EC81F0E0E653FD4F4491E4E0F3E08E
:10372000628181810E946C1B8C818F5F8C83DF9111
:10373000CF910895CF93DF93EC01E4E0F3E0438170
:1037400062818C810E946C1B8C818F5F8C83DF91E6
:10375000CF9108950F931F93CF93DF9300D01F92C3
:10376000CDB7DEB78C018091BE0281110AC09E01E7
:103770002F5F3F4F4FEF6FEF0E94A61A8A81809311
:10378000BE02F8018481813051F028F0823061F46A
:103790004091BE020AC08091BE0240E007C0609125
:1037A000BE0240E080E003C040E080E060E00E94B4
:1037B000511BF801848190E0019663E070E00E9463
:1037C000233184830F900F900F90DF91CF911F9141
:1037D0000F910895AF92BF92CF92DF92EF92FF9236
:1037E0000F931F93CF93DF9300D01F92CDB7DEB717
:1037F000182FF62E042FE22E9091040390FF7EC026
:10380000E92FE695AE2FB0E0AC53BE4F8C9180937C
:10381000CB029E7F923061F49E012F5F3F4F812F3C
:103820000E94A61A4B8169818A810E94511B43C064
:10383000823019F4009107033EC0863019F41091CC
:10384000050339C08930D9F38931A9F5E9518E2FA3
:103850008170D82EE695F0E0E653FC4FA590B49029
:10386000C12CBB2460913C01C61618F52C2D30E00C
:10387000A29EC001A39E900DB29E900D112470E0F7
:103880000E940F31812FD11002C0860F01C0861B0C
:1038900090913A01290F311DA901440F551F240FA2
:1038A000351F275F3C4F402F6F2D0E94A61AC394EF
:1038B000D9CF0E942D1B80910503181308C0809159
:1038C0000603F81204C080910703081729F08091BD
:1038D000CD0282608093CD0210930503F09206031F
:1038E00000930703EE2051F06091040370910503EB
:1038F00080910603909107030E94CB1A0F900F90BE
:103900000F90DF91CF911F910F91FF90EF90DF907B
:10391000CF90BF90AF900895E4E0F3E09181282F1D
:103920004381628188E0890F0C94EA1B81E00C944A
:103930008C1CE4E0F3E09181282F4381628188EFC1
:10394000890F0C94EA1B81E00C94991CE4E0F3E0ED
:10395000628121E1620F08F46FEF282F438181819A
:103960000C94EA1B81E00C94A61CE4E0F3E0628175
:1039700021E1621B08F460E0282F438181810C94CF
:10398000EA1B81E00C94B51CE4E0F3E0438121E103
:10399000420F08F44FEF282F628181810C94EA1BBB
:1039A00081E00C94C41CE4E0F3E0438121E1421B7C
:1039B00008F440E0282F628181810C94EA1B81E0A9
:1039C0000C94D31C21E00C94EA1B20E00C94EA1B1D
:1039D000FF920F931F93CF93DF93EC01F12C0FEF26
:1039E00010E060913C01F616F0F480913A012F2D21
:1039F00030E0280F311DC901880F991F280F391F8A
:103A0000275F3C4F70E0C8010E942331962F8C81C4
:103A10004091070360910603F99E800D11240E94D6
:103A2000A61AF394DECF0E942D1B9A818C8190FF01
:103A300002C08F5F01C081508C83DF91CF911F91B5
:103A40000F91FF9008958F929F92AF92BF92CF9265
:103A5000DF92EF92FF920F931F93CF93DF93EC01CE
:103A60008A8180FF03C0BB24BA9402C0BB24B394F4
:103A70008C8181110DC081E0B81206C080913C019B
:103A800081508093C00202C01092C00281E08C83FA
:103A9000A12C4CE0942E80913C01A81608F044C063
:103AA00080913A01CA2CD12C8601080F111DC80142
:103AB000880F991F080F191F075F1C4FF80111820B
:103AC0001082128234E0E32EF12C812C8091C0020E
:103AD000880D8D302CF0692D0E940131892F05C091
:103AE00087FF03C090913C01890F082E000C990BB1
:103AF000C816D90691F4809107038E9DA0018F9D71
:103B0000500D11245595479555954795980160910D
:103B10000603809105030E94A61A8B0CF1E0EF1AB0
:103B2000F108A1F6A394B7CF0E942D1B8091C0028B
:103B300091E0B9120EC0811107C080913C01815003
:103B40008093C0021C820FC081508093C002BC824F
:103B50000AC090E0019660913C0170E00E94233120
:103B60008093C0028C83DF91CF911F910F91FF90C2
:103B7000EF90DF90CF90BF90AF909F908F9008957F
:103B80001F93CF93DF93EC018C81811109C081E0F9
:103B90008C831092BF0292E090933701809336019C
:103BA00080913A0190913B01891770F4E82FF0E081
:103BB0009F01220F331FE20FF31FE75FFC4F1182BB
:103BC000108212828F5FF0CF10E060913C011617D7
:103BD000C0F5E12FF0E070E0CF010E942331209189
:103BE0003A01820F2091BF02022E000C330B90E0AD
:103BF000E217F307CCF020913701022E000C330BB3
:103C00002E173F078CF09C01220F331F820F931F4A
:103C10009C01275F3C4F4091070360910603809110
:103C200005030E94A61A0BC0FC01EE0FFF1F8E0FAA
:103C30009F1FFC01E75FFC4F1182108212821F5F01
:103C4000C4CF0E942D1B809136012091BF02280F06
:103C50002093BF0290913701980F90933701191666
:103C60005CF4022E000C330B40913C0150E04150BB
:103C700051092417350734F081958093360181303E
:103C800009F41C82DF91CF911F9108958F929F922A
:103C9000AF92BF92CF92DF92EF92FF920F931F935A
:103CA000CF93DF938C01FC014481C42FD0E09E01AF
:103CB000DE010E9467319B01AC010E947D316B01E6
:103CC0007C01E0E2F0E0EC1BFD0BA5E5B0E09B0120
:103CD000AC010E947D314B015C019F01DF010E941C
:103CE0005F319B01AC010E9488319B01AC012C0D1E
:103CF0003D1D4E1D5F1DC501B4010E943731C22F0D
:103D0000D22F2A3228F4F3E02F9F900111240DC006
:103D100025E530E02C1B3109C901880F991F280FB8
:103D2000391F37FF02C02F5F3F4F35952795C22FB0
:103D3000C095F12C85E5E82EED1A80913C01F8162E
:103D4000C8F4F1FC02C08E2D01C08D2F90913A0174
:103D50002F2D30E0290F311DA901440F551F240FCD
:103D6000351F275F3C4F4C2F609106030E94A61A17
:103D7000F394E3CF0E942D1BF8018481811102C0CE
:103D800091E003C0803219F49FEF90933501909138
:103D90003501890FF8018483DF91CF911F910F9135
:103DA000FF90EF90DF90CF90BF90AF909F908F905B
:103DB00008950F931F93CF93DF93EC0100E010E081
:103DC00080913C01282F30E00217130724F59091D1
:103DD0003A019801290F311DA901440F551F240FE5
:103DE000351F275F3C4F869590E04C8108171907D7
:103DF0001CF4442331F002C0411103C04091070379
:103E000001C040E060910603809105030E94A61A5C
:103E10000F5F1F4FD5CF0E942D1B8C8190E0019624
:103E2000817099278C83DF91CF911F910F91089515
:103E30001092CD02089525E0E4E0F3E0DC0101906A
:103E40000D922A95E1F72091CB023091CC0240915E
:103E5000CD02FC01258336834783089560910403D6
:103E6000669570E04BE050E08DE391E00E949C315C
:103E7000892B19F481E08093CC020E947C129093EC
:103E8000C5028093C4028091CD0284608093CD02EC
:103E90000895EBECF2E011828281846082830895C0
:103EA0009091040390FF3AC09170811102C092601A
:103EB00006C0853210F0986402C0880F982B90934A
:103EC00004038091CD0281608093CD02662351F07E
:103ED000609104037091050380910603909107039C
:103EE0000E94CB1A60910403669570E04BE050E0AD
:103EF0008DE391E00E949C31892B19F00E94491FAB
:103F000002C00E942E1F81E08093C70240910703E8
:103F100060910603809105030C94E51C0895682FB9
:103F200090910403969581E0890F853208F081E035
:103F30000C94501F81E00C948F1F682F9091040304
:103F400096958FEF890F09F484E20C94501F81E05D
:103F50000C949D1F61E00C94501FE4E0F3E080811D
:103F60008160808386950C94AA1F60E00C94501F9A
:103F7000E4E0F3E080818E7F8083608171818281C3
:103F800093810E94CB1A0E94491FEBECF2E08281E0
:103F9000816082832FEF80E792E021508040904043
:103FA000E1F700C000000C942D1B8091040380FDFC
:103FB0000C94B81F0C94AD1FE4E0F3E080818E7F79
:103FC00080830E94491FEBECF2E082818160828352
:103FD0002FEF80E792E0215080409040E1F700C051
:103FE00000000C942D1B1F93CF93DF93EC01162F31
:103FF0008F8180FF0FC0888180FF0AC080910403F9
:10400000816080930403888186950E94501F02C0BE
:104010000E94DC1F8F8181FF06C0212F4B816A81A6
:1040200089810E94EA1B8F8182FF08C08E818823CC
:1040300019F00E942E1F02C00E94491F8F8183FF2A
:1040400003C081E08093C702DF91CF911F91089553
:104050008091CA02811133C00E94AF0E811104C049
:104060000E94500F0E94DD1A0E94C71A6093040339
:104070007093050380930603909307038091CD020C
:1040800083608093CD026E7F61F40E94DD1A0E94EE
:10409000C71A6093040370930503809306039093FB
:1040A00007030E94B41A0E94491F8091040380FFF5
:1040B00003C086950E94B51F81E08093CA020895CF
:1040C000EF92FF920F931F93CF93DF938091CC02D7
:1040D000882309F4ABC08091CB02E0910403E695FC
:1040E000E81BE093C602823049F4F0E0EA53FD4F4A
:1040F000E491CE2FD0E006E81BE149C0863049F4B8
:10410000F0E0ED53FD4FE491CE2FD0E00AE91BE142
:104110003EC0893051F4E695F0E0E054FD4FE49163
:10412000CE2FD0E008EE1CE132C08F3051F4E6957E
:10413000F0E0E354FD4FE491CE2FD0E003E21DE127
:1041400026C0853149F4F0E0E654FD4FE491CE2FCE
:10415000D0E000EC1DE11BC0883181F0833239F4DE
:10416000E8EBF2E0C591D4910AEA1BE110C0843279
:1041700051F4C4EFD1E009ED1EE109C0C8E2D0E07E
:1041800006E41EE104C0C0EDD7E00DE91AE180911C
:10419000C702882361F01092C7020E947C1290939C
:1041A000C5028093C4021092C9021092C8020E94F4
:1041B0007C12E091C402F091C5029C012E1B3F0BC2
:1041C0002F3F3F4798F52091C3022223B1F0109270
:1041D000C3022091C1023091C202821B930B8F3F18
:1041E0009F4758F4205D3A483093C2022093C102A1
:1041F0008091CD0288608093CD02E090C802F0905B
:10420000C902EC0FFD1FF093C502E093C40284ECD9
:1042100092E0F80109958091C8029091C902892B1A
:1042200029F4EF2819F081E08093C302DF91CF9148
:104230001F910F91FF90EF900895882311F0FA01DC
:1042400001C0FB010994CF93DF93C82FD62F0E94A2
:10425000F41A8C1740F00E94F41A8D1720F4DF91A5
:10426000CF910C949A1F8C2FDF91CF910C94AA1FA1
:104270001F93CF93DF93FB0112811111C3C0EC0197
:104280000E94CC0D8272CD3CFCE5DF0709F49AC098
:10429000A8F5C73CECE5DE0709F476C0A8F4C43CF9
:1042A0009CE5D90709F45FC028F4C33CDC4509F458
:1042B00057C054C0C53C9CE5D90709F459C0C63C59
:1042C000DC4509F45CC04AC0CA3CFCE5DF0709F4E0
:1042D0006AC050F4C83CECE5DE0709F45AC0C93C9A
:1042E000DC4509F45BC03AC0CB3C9CE5D90709F436
:1042F0005FC0CC3CDC4509F460C030C0C23DFCE589
:10430000DF0709F46FC088F4CF3C9CE5D90709F4B6
:1043100060C008F45CC0C03DFCE5DF0709F45CC088
:10432000C13DDC4509F45BC019C0C53D9CE5D9071A
:1043300009F460C050F4C33DFCE5DF0709F455C043
:10434000C43DDC4509F454C009C0C63D9CE5D9070D
:1043500009F455C0CE35DD4509F454C011E052C012
:104360000E94D51F4FC047EA5FE16AE97FE104C0C0
:104370004AE95FE167EA7FE10E941D2143C043EA09
:104380005CE166E97CE1F8CF46E95CE163EA7CE167
:10439000F3CF41EC5CE162EB7CE1EECF42EB5CE120
:1043A00061EC7CE1E9CF4FED5CE160ED7CE1E4CFD5
:1043B00040ED5CE16FED7CE1DFCF47E25BE160E186
:1043C0007BE1DACF40E15BE167E27BE1D5CF81E0E1
:1043D00017C065E082E010C068E086E00DC06EE0C6
:1043E00089E00AC064E18FE007C067E185E104C0AD
:1043F00088E106C062E289E10E94232103C083E2D2
:104400000E94AA1F812FDF91CF911F910895809163
:104410002D038170089586E090E00C94BF31682FE1
:1044200086E090E00C94D33180912D0384708963F1
:1044300080932D030C940F2280912D0386958695F1
:10444000869508950E94AF0E811104C00E94500FFE
:104450000E9414220E940B2280932D03282F269560
:104460002695269530E02830310524F08770886342
:1044700080932D0380912D0380FF04C0869586953F
:10448000869501C080E00C94332320912D03822F68
:10449000869586958695482F50E04730510554F40F
:1044A0008F5F982F990F990F990F822F8770892B03
:1044B00080932D0380912D03816080932D030E94B2
:1044C0000F2280912D038695869586950C94332333
:1044D00080912D03982F969596959695A1F0915ED3
:1044E000990F990F990F8770892B80932D03887FDF
:1044F00091E009F490E080912D0390FB80F9809386
:104500002D030E940F2280912D0386958695869516
:104510000C94332380912D0380FD13C08160809320
:104520002D03813019F489E080932D0380912D03B0
:104530000E940F2280912D038695869586950C9476
:104540003323089580912D0380FF08C08E7F8093D0
:104550002D030E940F2280E00C9433230895809154
:104560002D0380FD0C94A2220C948A2290912D039D
:10457000892F8695869586958F5F8F719770883085
:1045800038F4880F880F880F892B80932D0302C081
:1045900090932D0380912D03887F91E009F490E0A2
:1045A00080912D0390FB80F980932D030E940F22B0
:1045B00080912D038695869586950C9433238830BB
:1045C00008F087E090912D039770282F220F220F7B
:1045D000220F922B90932D03987F21E009F420E085
:1045E00090912D0320FB90F990932D030C9433238D
:1045F0000E94DF2280912D030C940F229C01FB016D
:104600008281882349F12E3BFCE53F07C9F040F445
:104610002C3BECE53E0769F02D3B3C4561F00895ED
:10462000203C9CE5390791F070F0213C3C4589F035
:10463000089587E001C080E00E94F82280E008959C
:104640000E946822FBCF0E944522F8CF0E94AF2231
:10465000F5CF0E94B622F2CF81E00895259A2D98D9
:1046600008952D9808958F929F92AF92BF92CF9206
:10467000DF92EF92FF920F931F93CF93DF93C82F98
:10468000883050F4811109C0809180008F77809329
:1046900080000E94312306C0C7E0809180008068BE
:1046A00080938000A0918600B09187002C2F30E08D
:1046B0000E94673127E030E040E050E00E9437314F
:1046C0000027122F232F342F012F122F232F3327B0
:1046D00080918600909187006CE070E00E940F311D
:1046E0006017710730F0C80169E070E00E940F3177
:1046F0005EC08091860090918700E0908600F090E7
:104700008700E0918600F0918700C6E0D0E0BE010E
:104710000E940F31060F171F211D311D480159013D
:1047200085E0880C991CAA1CBB1C8A95D1F7C7018F
:10473000BE010E940F316F01E12CF12CA7019601FF
:10474000260F371F411D511DC501B4010E9437318D
:1047500069017A01E0918600F0918700CA01B901F0
:104760000E94F1309B01AC01DF010E947D319B0171
:10477000AC01C701B6010E94F130DC01CB012FE092
:10478000B695A795979587952A95D1F700918600BC
:104790001091870020E030E0081719072A073B072F
:1047A00028F46091860070918700CB01BC01709362
:1047B000890060938800DF91CF911F910F91FF9046
:1047C000EF90DF90CF90BF90AF909F908F90089523
:1047D00008950E942E2382E88093800089E18093CF
:1047E00081008FEF9FEF90938700809386000C9459
:1047F0002222249A25B12F7E35B130614FB7F8942B
:10480000FC01CB01880F991F680F791F6E0F7F1F66
:10481000E617F70789F0819198E035B9000000C0EC
:1048200087FF25B9880F000000C000C000C025B96F
:1048300000C09A9591F7ECCF4FBF8FE594E00197B8
:10484000F1F700C0000008950895FC01680F791F7A
:104850008FEF91E3E617F70771F02191822728E0A7
:1048600030E087FF03C0880F892701C0880F2150DF
:104870003109B9F7EFCF0895CF93DF93EC01FB0136
:104880008281882309F43CC1C430FDE5DF0760F470
:10489000CB3F9CE5D90788F49E0122503C4524314A
:1048A000310508F02EC109C0C236EDE5DE0729F05A
:1048B000C63AFDE5DF0709F024C10E94C20E9093BD
:1048C000ED028093EC02C1318CE5D80709F4C6C033
:1048D00008F042C0C930ECE5DE0709F49BC000F5E2
:1048E000C5308CE5D80709F485C078F4C330ECE511
:1048F000DE0709F478C008F07AC0C230DC4509F060
:10490000F5C08091EC028160EFC0C7309CE5D9070B
:1049100009F478C008F07AC08091EC028061E4C0AC
:10492000CD30FCE5DF0709F487C058F4CB309CE5B7
:10493000D90709F479C008F07BC08091EC02886047
:104940006FC0CF30FCE5DF0709F480C008F082C0FB
:104950008091EC02877FC8C0CE3F9CE5D90709F45F
:1049600071C000F5C531FCE5DF0709F485C068F4C6
:10497000C3319CE5D90709F475C008F095C00E94C1
:1049800077088091EC028F77AFC0CC3FFCE5DF0762
:10499000A9F108F054C0CB3FDC4509F0A7C08091D5
:1049A000ED0240C0C230EDE5DE0709F489C058F4DD
:1049B000C1158DE5D80709F45AC008F069C0809187
:1049C000ED0282602FC0C236EDE5DE0709F47CC03F
:1049D000C63AFDE5DF0709F481C0C330DD4509F0C3
:1049E00085C080E06EC08091EC0282607DC08091C5
:1049F000EC0216C08091EC02886076C08091ED02D6
:104A000082604FC08091EC0280626EC08091EC02A7
:104A100080646AC00E9477088091EC02806864C05C
:104A2000846062C081603DC08091EC028E7F5CC07A
:104A30008091EC028D7F58C08091EC0216C080916D
:104A4000ED0218C08091ED028D7F2BC08091EC02A9
:104A50008F7E4AC08091EC028F7D46C08091EC022F
:104A60008F7B42C08091EC02877F8B7F3DC080911D
:104A7000ED028D7F8E7F15C08091EC0282FB222794
:104A800020F991E0922790FB82F990FB83F92CC0EA
:104A90008091ED02982F909591708E7F892B90FBDD
:104AA00081F98093ED0222C00E9477088091EC0288
:104AB00087FB222720F991E0922790FB87F914C009
:104AC00081E00E94520F12C08091EC0284FB2227E9
:104AD00020F991E0922790FB84F906C08091EC02C6
:104AE000982F909590FB80F98093EC028091EC02D6
:104AF0009091ED020E94D30E0E94770880E001C0E1
:104B000081E0DF91CF910895CF93DF9386319C456B
:104B100041F5EB010E94CC0D982F8A812091020172
:104B200030910301882379F09A7A81E009F480E0DA
:104B30008093CE02911102C069E201C065E3C90110
:104B40000E94E0280AC08091CE02811102C069E271
:104B500001C065E3C9010E94E2280E940E0E80E0B8
:104B600001C081E0DF91CF9108950F931F93CF9300
:104B7000DF93C42FD22FFC0182818823C9F0409398
:104B8000D1020E9486299093D0028093CF0280E2C6
:104B90008C0F883008F057C0C77081E001C0880FC3
:104BA000CA95EAF7DF91CF911F910F910C94D4052C
:104BB0008091D102481330C08091CF029091D002F1
:104BC0000E949E29883C910538F510E21D0FCD17F3
:104BD000B9F080E28C0F883040F4C77081E001C0EA
:104BE000880FCA95EAF70E94DB05183028F581E0A6
:104BF0009D2F977001C0880F9A95EAF70E94D405FF
:104C0000802F0E94CB051830F0F4D77081E001C0EE
:104C1000880FDA95EAF70AC080E28C0F883098F4A2
:104C2000C77081E001C0880FCA95EAF7DF91CF9184
:104C30001F910F910C94DB05802FDF91CF911F9175
:104C40000F910C94CB05DF91CF911F910F91089597
:104C50000F939C01CB01243F4CE5340731F188F4DC
:104C6000293DFCE53F07D9F02A3D4CE5340779F1B1
:104C7000283D3C45A9F506E221EE41EE68ED7CE5D4
:104C80002BC0263FFCE53F07E1F0A8F0273F3C455D
:104C900039F507E225EE46EE67EF7CE51DC007E239
:104CA00025EE45EE69ED7CE517C006E221EE40EE0B
:104CB00064EF7CE511C007E225EE44EE65EF7CE58C
:104CC0000BC006E221EE42EE66EF7CE505C008E28D
:104CD00021E045EE6AED7CE50E94B52580E008C044
:104CE000FC018281882319F01092D10201C081E079
:104CF0000F9108958EE1489B02C08150E1F7489BD7
:104D0000FECF0895589880E28A95F1F7589A089551
:104D1000FC012AE02A95F1F728E090E080E031E0FC
:104D200040E14A95F1F7880F489B02C081609327C4
:104D300000C0000040E14A95F1F7215089F720E1D9
:104D40002A95F1F729B100C0000030E13A95F1F75A
:104D5000217092272081920F90830895EF92FF9205
:104D60000F931F93CF93DF931F92CDB7DEB71982B6
:104D70008C017C01E60EF11C0E151F0551F00E94FE
:104D80007A26CE0101960E948826F80181938F0130
:104D9000F3CF81E09981911180E00F90DF91CF9165
:104DA0001F910F91FF90EF900895509A589A08958F
:104DB0005098589AE89AE9E6F0E080818C7F8083E9
:104DC0000895615091E001C0990F6A95EAF720E0DB
:104DD00031E0992361F0492F482319F0589A23278D
:104DE00001C0589840E24A95F1F79695F2CF2223F8
:104DF00011F0589A01C0589880E28A95F1F75898B6
:104E00000895FF920F931F93CF93DF93EC018C01D2
:104E1000060F111DC017D10741F0F9900E9482269C
:104E200068E08F2D0E94E126F5CFDF91CF911F9191
:104E30000F91FF9008951F920F920FB60F921124B9
:104E40000F931F932F933F934F935F936F937F9392
:104E50008F939F93AF93BF93EF93FF93CF93DF9382
:104E60001F92CDB7DEB719820E947A26CE01019635
:104E70000E948826082F069506950695902F9695F0
:104E80009570202F2570920F292F23709695969557
:104E9000920F877089135FC0898181115CC00630D1
:104EA00008F059C080E18A95F1F7589A509A82E04B
:104EB0008A95F1F700C0589888E0089F8001112476
:104EC000D801AB5FBE4F1696ED91FC9117973097C6
:104ED000A9F06091C2017091C30114962D913C918B
:104EE0001597260F371F11968D919C911297680F79
:104EF000791F13964C9113978C910995F801EB5FEC
:104F0000FE4F6381662351F08091C2019091C301ED
:104F100024813581820F931F0E9401270E948226DF
:104F200080E18A95F1F758985098589A80E18A95CF
:104F3000F1F7F801EB5FFE4F6081662351F080913D
:104F4000C2019091C30121813281820F931F0E947F
:104F5000AE260E947A260F90DF91CF91FF91EF91BC
:104F6000BF91AF919F918F917F916F915F914F9181
:104F70003F912F911F910F910F900FBE0F901F9097
:104F800018950F931F93CF93DF93863091050CF004
:104F90006DC0EC01F894509A589885E08A95F1F725
:104FA00000009C2F969595702C2F2570920F892FBD
:104FB00083709695969523E0CC0FDD1F2A95E1F737
:104FC000980F8E01092B0E94822684E08A95F1F7C2
:104FD00000C068E0802F0E94E12680E18A95F1F709
:104FE0005098589A489902C000C0FCCF87E090E0E2
:104FF000489B08C0019721F4509A589A789436C07B
:1050000000C0F6CFFE01EB5FFE4F6381662381F0A7
:105010008091C2019091C30124813581820F931F39
:105020000E94AE26811104C0509A589A78941FC0ED
:105030000E947A2680E28A95F1F75898509A80E18A
:105040008A95F1F7CB5FDE4F6881662351F080913E
:10505000C2019091C30129813A81820F931F0E945E
:1050600001270E948226789481E001C080E0DF91D0
:10507000CF911F910F9108959093EB018093EA01D6
:1050800008959093D8028093D70208950E947D14CA
:10509000811103C08091D2020895E091D702F0916E
:1050A000D802309721F00190F081E02D099480E042
:1050B0000895E091D702F091D802309721F0028054
:1050C000F381E02D09940895E091D702F091D80280
:1050D000309739F022E0DC012C930480F581E02D3B
:1050E000099408952091D5023091D60228173907E6
:1050F00071F09093D6028093D502E091D702F0919F
:10510000D802309721F00680F781E02D09940895A8
:105110002091D3023091D4022817390771F090936F
:10512000D4028093D302E091D702F091D802309755
:1051300021F00084F185E02D09940895FC01329658
:1051400097E080E0915029F021912223D9F38F5FDD
:10515000F9CF0895662349F0FC0132960896219113
:10516000621729F0E817F907D1F780E0089581E088
:1051700008959C01FC0132969FEF80E04191461713
:1051800089F09F3F19F4411101C0982F8F5F86303D
:10519000A9F79F3F39F0F901E90FF11D97FDFA9545
:1051A0006283089508959C012A5F3F4FFC0142816C
:1051B000461301C01282019682179307B9F708952A
:1051C0000C94B9280C94D328029626E0FC01119285
:1051D0002A95E9F7089508950C94EB2883E08093CD
:1051E000D9020C94EC28811102C081E001C082E058
:1051F0008093D9020C94EC280C94F32881E08093DE
:10520000D9020C94EC280C94FE2808950C940529DE
:105210000C9406290C9405290C9405290C94052955
:10522000CF930E940C290E94EB130E940A29C0E030
:105230008C2F0E94AC12811104C0CF5FCA30C1F71D
:1052400001C081E0CF91089508951F920F920FB68B
:105250000F9211248F939F93AF93BF938091DA02A3
:10526000811113C080912E0390912F03A0913003E0
:10527000B09131034196A11DB11D80932E039093EF
:105280002F03A0933003B0933103BF91AF919F914F
:105290008F910F900FBE0F901F901895809136033D
:1052A000843031F10E9422041092DA0220E488E175
:1052B00090E00FB6F894A895809360000FBE2093FD
:1052C000600083B7817F846083BF83B7816083BFC1
:1052D0007894889583B78E7F83BF0FB6F894A8958E
:1052E00080916000886180936000109260000FBE22
:1052F00008950E9477080C94290482E084BD93E00D
:1053000095BD9AEF97BD80936E0008952FB7F894DE
:1053100080912E0390912F03A0913003B09131031F
:105320002FBF08952FB7F89460912E0370912F032B
:1053300080913003909131032FBF08959C014FB7A6
:10534000F89480912E0390912F03A0913003B09197
:1053500031034FBF821B930B0895CF92DF92EF92E0
:10536000FF922FB7F894C0902E03D0902F03E090B7
:105370003003F09031032FBFA7019601261B370B96
:10538000480B590BCA01B901FF90EF90DF90CF9005
:10539000089578941F920F920FB60F9211248F9355
:1053A0009F93AF93BF9380912E0390912F03A09171
:1053B0003003B09131030196A11DB11D80932E03DE
:1053C00090932F03A0933003B0933103BF91AF911B
:1053D0009F918F910F900FBE0F901F90189581E0B5
:1053E0008093E00080E28093D8001092C9008FE1A2
:1053F0009EE40197F1F700C0000087E090EBDC012C
:1054000080933F0390934003A0934103B0934203E2
:105410009CE088E10FB6F894A895809360000FBED9
:1054200090936000FFCF8091E6020895089522E0F6
:105430002093E9002FEF3091E800215035FD06C0A0
:1054400035ED3A95F1F700002111F5CF2091E800F4
:1054500025FF0BC040E050E066E070E00E94412C68
:105460008091E8008E778093E8000895CF93DF93D2
:1054700021E02093E9002FEF3091E800215035FD25
:1054800006C035ED3A95F1F700002111F5CF2091D6
:10549000E80025FF14C0EC0140E050E068E070E057
:1054A0000E94412C8091E8008E778093E80088E08C
:1054B000FE01AEEDB2E001900D928A95E1F7DF9129
:1054C000CF9108958093DB027093DD026093DC023C
:1054D00080913603843001F582E08093E9008FEFFC
:1054E0009091E800815095FD06C095ED9A95F1F7F1
:1054F00000008111F5CF8091E80085FF0DC040E0EC
:1055000050E063E070E08BED92E00E94412C8091CE
:10551000E8008E778093E8000895BC0184E00C9445
:10552000622ABC0183E00C94622A809135038111C8
:1055300009C00E94D22D0E942F2E8091E20084602B
:105540008093E20008951092350308950C94032986
:105550006091320381E0611101C080E00C94EE287B
:105560009091360381E0943009F080E0609132033D
:105570000C94F32842E061EC81E00E944B2D42E262
:1055800061EC82E00E944B2D9091360381E09430D3
:1055900009F080E0609132030C94FC28809138037C
:1055A000833009F461C030F4813071F0823009F445
:1055B0009AC008958A3009F486C08B3009F46CC013
:1055C000893009F0A8C020C080913703813A09F0E2
:1055D000A2C08091E800877F8093E80080913B0320
:1055E00090913C03892B21F468E08EED92E003C09A
:1055F00060E080E090E070E00E948C2C8091E800F8
:105600008B778093E800089580913703813209F009
:1056100082C080913B0390913C03029708F07BC0CD
:105620008091E800877F8093E8008091E80082FD08
:1056300005C0809136038111F8CF6DC02091F30031
:105640008091F20090E0922B029731F48091F1006A
:10565000813011F0863021F48091F1008093E602D0
:105660008091E8008B7753C080913703813A09F02D
:1056700052C080913B0390913C03892B09F04BC0B1
:105680008091E800877F8093E8008091E80080FFA8
:10569000FCCF8091540136C0809137038132D9F517
:1056A00080913B0390913C03892BA9F58091E80000
:1056B000877F8093E8000E94802D8091390380933A
:1056C00054010C94770880913703813221F5809141
:1056D000E800877F8093E8000E94802D80913A0344
:1056E0008093E702089580913703813AA1F4809175
:1056F000E800877F8093E8008091E80080FFFCCF7E
:105700008091E7028093F1008091E8008E7780938A
:10571000E8000C94802D089584B7877F84BF0FB66E
:10572000F894A89580916000886180936000109241
:1057300060000FBE90E080E80FB6F894809361009F
:10574000909361000FBE0C94FE280E94D22D0E94FF
:105750002F2EE2EEF0E080818460808378940C94B8
:10576000C43088E491E00C94412880913603853060
:10577000A9F480913603853079F40E944E298091F6
:1057800034038823B1F30E941029882391F30E94E7
:105790002B2C0E947708EDCF0C9479290895089559
:1057A0000C94D22B292F332723303105C9F060F414
:1057B0002130310581F02230310509F044C08BE3FE
:1057C00090E02FE035E043C021323105E1F0223294
:1057D000310549F138C082E190E02AE435E037C074
:1057E00099278130910549F028F0029761F5EFEC97
:1057F000F4E005C0EBE0F5E002C0EBEFF4E08491EB
:1058000090E09F0124C06115710541F06130710580
:10581000D1F489E090E02AE335E019C089E090E016
:1058200021E235E014C06115710541F06130710568
:1058300051F48BE790E02CE535E009C080E490E07E
:1058400027ED35E004C080E090E020E030E0FA0190
:1058500031832083089580E189BD82E189BD09B447
:1058600000FEFDCF8091D8008F7D8093D80080917D
:10587000E00082608093E0008091E00081FDFCCF39
:105880000895CF92DF92EF92FF920F931F93CF93E1
:10589000DF93EC018B017A010E949F2D811133C0AF
:1058A000E114F10439F0F70180819181081B190B93
:1058B000C80FD91FC12CD12C0115110519F18091E8
:1058C000E80085FD16C08091E8008E778093E8009F
:1058D000E114F10449F0F70180819181C80ED91ECD
:1058E000D182C08285E00FC00E949F2D882321F3C2
:1058F0000AC089918093F10001501109FFEFCF1A7E
:10590000DF0ADACF80E0DF91CF911F910F91FF90F6
:10591000EF90DF90CF90089520913D0330913E03AA
:105920002617370748F06115710539F42091E80012
:105930002E772093E80001C0B901FC0120E0611539
:10594000710579F1809136038823F1F18530F1F109
:105950008091E80083FD3CC08091E80082FD2EC06C
:105960008091E80080FFEBCF2091F3008091F2005E
:1059700090E0922B6115710551F08830910538F453
:1059800021912093F100615071090196F3CF21E03C
:10599000089709F020E08091E8008E778093E80076
:1059A000CECF2111CFCF0AC080913603882361F07A
:1059B000853061F08091E80083FD0AC08091E800A5
:1059C00082FFF2CF80E0089582E0089583E0089599
:1059D00081E0089520913D0330913E03261737075B
:1059E00048F06115710539F42091E8002E77209375
:1059F000E80001C0B901FC0120E06115710591F1D9
:105A000080913603882309F440C0853009F43FC0F3
:105A10008091E80083FD3DC08091E80082FD2FC0A9
:105A20008091E80080FFE9CF2091F3008091F2009F
:105A300090E0922B6115710559F08830910540F482
:105A400024912093F1003196615071090196F2CFB3
:105A500021E0089709F020E08091E8008E7780939C
:105A6000E800CBCF2111CCCF0AC080913603882328
:105A700061F0853061F08091E80083FD0AC080917B
:105A8000E80082FFF2CF80E0089582E0089583E08D
:105A9000089581E00895982F973068F59093E90074
:105AA000981739F07091EC002091ED005091F000C2
:105AB00003C0242F762F50E021FD02C09F5FECCF62
:105AC0003091EB003E7F3093EB003091ED003D7F55
:105AD0003093ED003091EB0031603093EB00709328
