:100000000C9496030C945D280C94DD030C94DD0392
:100010000C94DD030C94DD030C94DD030C94DD03E0
:100020000C94DD030C94DD030C94E52F0C94B73095
:100030000C94EC2A0C94DD030C94DD030C94DD038A
:100040000C94DD030C94DD030C94DD030C94DD03B0
:100050000C94DD030C94612B0C94DD030C94DD03F4
:100060000C94DD030C94DD030C94DD030C94DD0390
:100070000C94DD030C94DD030C94DD030C94DD0380
:100080000C94DD030C94DD030C94DD030C94DD0370
:100090000C94DD030C94DD030C94DD030C94DD0360
:1000A0000C94DD030C94DD030C94DD03B106B10662
:1000B000DD06DD0645076307880888086E07030824
:1000C0001408140878088808880881082C092C0965
:1000D0003E093E0935093E093E093E092C092C0915
:1000E0003A093E093E093A0924314B3143324B313A
:1000F00043329731BA31433211322032165C1E003E
:100100001F002000210022004C0014001A000800EB
:1001100015001700390004001600070009000A0046
:10012000E1001D611B000600190005000153E000FD
:10013000E200E3002B002B00230024002500260012
:1001400027002D001C0018000C00120013002A00CC
:100150000B000D000E000F003300340011001000E2
:10016000360037003871DA5C2C002C00500051004A
:1001700052004F0029003A003B003C003D000000C7
:100180002B003E003F004000410000000000420004
:100190004300440045000000E100015302530353B3
:1001A000045305530100E000E200E3002C002C00A2
:1001B000000000005400550056002A0000002400F2
:1001C0002500260057004C000000210022002300DB
:1001D0008500000000001E001F0020006700DA5CA0
:1001E00027002700000063000000000035001E000B
:1001F0001F002000210022002B00340036003700B1
:1002000013001C00290004001200080018000C0054
:10021000E100330001000D000E001B000100E000B2
:10022000E200E30003512C002300240025002600F7
:1002300027002A0009000A00060015000F004C00E4
:1002400007000B0017001100160038000500100011
:100250001A0019001D0028002C0004515000510004
:1002600052004F0035021E021F022002210222020C
:1002700035021E021F022002210222024C003A0017
:100280003B003C003D003E00C15C400041000100DD
:1002900043004400010001000100010001000100D1
:1002A000230224022502260227022A002302240216
:1002B0002502260227024C003F002D022E022F02AB
:1002C000300231024500320264024A004D00010052
:1002D00001000100AB00AA00A900AE0035001E001D
:1002E0001F0020002100220035001E001F002000FA
:1002F000210022004C003A003B003C003D003E0043
:1003000001004000410042000100440001000100E2
:100310000100010001000100230024002500260047
:1003200027002A00230024002500260027004C0077
:100330003F002D002E002F0030003100450032001C
:1003400064004B004E00010001000100AB00AA0058
:10035000A900AE003A003B003C003D003E003F00DB
:100360000100005CC35CC45CC75CC65C01000100AA
:1003700001001D5C1E5C135C010001000100010016
:100380000100010001000100010001000100010065
:10039000400041004200430044004500C95CC85C85
:1003A000CB5CCA5C01004C000A5C1050115012502A
:1003B0000100010001000100010001000100010035
:1003C00001000100010001000100010000047F3F65
:1003D0001F643214643214783C1E1E140A05222352
:1003E000252628292A2C2D2F3032333536383A3B12
:1003F0003D3E4042434547494A4C4E505153555764
:10040000595A5C5E6062646668696B6D6F71737582
:1004100077797B7D7F81838587898A8C8E90929482
:1004200096989A9C9E9FA1A3A5A7A8AAACAEAFB18F
:10043000B3B4B6B8B9BBBCBEBFC1C2C3C5C6C7C9D9
:10044000CACBCCCDCED0D1D2D2D3D4D5D6D7D7D893
:10045000D9D9DADADBDBDBDCDCDCDCDCDDDDDDDDE5
:10046000DCDCDCDCDCDBDBDBDADAD9D9D8D7D7D6ED
:10047000D5D4D3D2D2D1D0CECDCCCBCAC9C7C6C5A4
:10048000C3C2C1BFBEBCBBB9B8B6B4B3B1AFAEACEA
:10049000AAA8A7A5A3A19F9E9C9A98969492908E95
:1004A0008C8A89878583817F7D7B79777573716F6E
:1004B0006D6B6968666462605E5C5A59575553514A
:1004C000504E4C4A4947454342403E3D3B3A383600
:1004D000353332302F2D2C2A292826252322FFAA16
:1004E0007F554000010101010101010101020202E9
:1004F00002020202020203030303030303030404D0
:100500000404040404050505050506060606060799
:100510000707070708080808090909090A0A0A0B52
:100520000B0B0C0C0C0D0D0D0E0E0E0F0F0F1010F3
:10053000111111121213131414151516161717187A
:100540001819191A1A1B1B1C1D1D1E1E1F202021E5
:100550002222232424252626272829292A2B2C2D2C
:100560002D2E2F30313232333435363738393A3B4D
:100570003C3D3E3F404142434445464748494A4C42
:100580004D4E4F50515354555658595A5B5D5E5F0E
:10059000616264656668696B6C6D6F7072737577A4
:1005A000787A7B7D7E8082838587888A8C8E8F9106
:1005B000939596989A9C9EA0A2A3A5A7A9ABADAF30
:1005C000B1B3B5B7BABCBEC0C2C4C6C9CBCDCFD11A
:1005D000D4D6D8DBDDDFE2E4E7E9EBEEF0F3F5F8C3
:1005E000FAFDFF2A0354006800650020004E0079E0
:1005F000007100750069007300740020004B0065F5
:1006000000790062006F0061007200640000000E5B
:10061000034B0065006500620069006F0000000484
:1006200003090409023B00020100A0FA09040000CA
:100630000103010100092111010001224000070509
:10064000810308000A0904010001030000000921D8
:1006500011010001227B000705820320000A12011C
:1006600000020000000810CB563100030102000117
:1006700005010902A10185020901A100050919016D
:100680002908150025019508750181020501093029
:1006900009311581257F9502750881060938158174
:1006A000257F950175088106050C0A3802158125FC
:1006B0007F950175088106C0C005010980A10185EB
:1006C0000319012AB700150126B70095017510819D
:1006D00000C0050C0901A101850419012AA0021519
:1006E0000126A002950175108100C005010906A12F
:1006F00001050719E029E715002501950875018115
:10070000029501750881010507190029FF150026CA
:10071000FF00950675088100050819012905950552
:1007200075019102950175039101C00011241FBE4E
:10073000CFEFDAE0DEBFCDBF04B603FE27C0809165
:10074000470390914803A0914903B0914A03873031
:10075000904BA740B04BD1F410924703109248033E
:100760001092490310924A0314BE84B7877F84BF56
:100770000FB6F894A895809160008861809360001E
:10078000109260000FBEE0E0F8E3099511E0A0E0F0
:10079000B1E0E2E4F7E602C005900D92A83FB10790
:1007A000D9F723E0A8EFB1E001C01D92A734B2074A
:1007B000E1F70E94C1180C949F330C9400000E9432
:1007C000E22385E00E9450240E9405214FEF6FEF45
:1007D00080E00E943A1E8BE00E94022160E070E0FF
:1007E000CB010E9409100C94151081E0089581E05E
:1007F00008950C94F70308950C94FB031F93CF9373
:10080000DF9300D000D01F92CDB7DEB749835A8363
:100810006B833091FA0189819A81311114C066236A
:1008200059F0222349F00E94D20A182F682F89819B
:100830009A810E94790A03C00E94A50A182F698133
:100840007A81812F04C00E94D20A69817A810F9037
:100850000F900F900F900F90DF91CF911F910C94FC
:100860006B11FC01262F408151816281738184814B
:100870000C94FE0381E00895CF93DF93EC0160E0D8
:100880000E943104BE01DF91CF910C94FC030E94C1
:10089000CB130E94E0040E9441250C9405140C9493
:1008A000011408950C9451040C9452040E945404B1
:1008B00080E00E948B2480E00C94E1040C945104AD
:1008C0000E941A090E945E042FEF84E39CE02150ED
:1008D00080409040E1F700C000000C94872B0F93FC
:1008E0001F93CF93DF938C0161E00E943104EC01F0
:1008F000B8010E94F903882309F44BC0B801CE0166
:100900000E945624882309F444C0B801CE010E94F5
:100910006A278823F1F1B801CE010E94942588232B
:10092000C1F1B801CE010E94C626882391F1B80119
:10093000CE010E949022882361F1F80182818823F0
:1009400009F1CB358DE5D807C1F050F4C115FCE5B0
:10095000DF0781F0CF3DDC45A9F40E94791019C072
:10096000CC35EDE5DE0761F0CD35DD4559F40E946B
:10097000C90F08C00E9460040CC00E94D20F02C0C0
:100980000E94D50FC801DF91CF911F910F910C9458
:10099000F50380E0DF91CF911F910F9108950C94A2
:1009A00051040E947A230E94E6290E94E1040C94DB
:1009B000CF0408950C94D90481E008950C94DC04CC
:1009C0000895CF93C82F0E94DA048C2F0E94DE0472
:1009D000CF910895CF93DF93CDB7DEB72B970FB6A6
:1009E000F894DEBF0FBECDBF4F83588769877A87E3
:1009F0008B8761110E94150F9E012F5F3F4F86E08C
:100A0000F90111928A95E9F785E0FE013796D9013F
:100A100001900D928A95E1F789819A814C815D81DF
:100A2000452B31F09F3F31F491E08F3F19F403C023
:100A300091E001C090E090FF09C049815A816B812B
:100A40007C818D819E810E94360E05C0C9010E9465
:100A50003A048111F2CF2B960FB6F894DEBF0FBE89
:100A6000CDBFDF91CF910895FC01808191810E94DB
:100A7000140B0895CF93882309F4A4C0C82F82389B
:100A8000C1F40E94E62981FD9DC069E380910201C5
:100A9000909103010E94802A0E94470F2FEF81EE60
:100AA00094E0215080409040E1F700C0000069E3ED
:100AB00019C0833801F50E94E62980FD83C063E5F3
:100AC00080910201909103010E94802A0E94470FA9
:100AD0002FEF81EE94E0215080409040E1F700C07C
:100AE000000063E580910201909103010E94822A37
:100AF000CF910C94470F8438C1F40E94E62982FDFF
:100B000061C067E480910201909103010E94802AF4
:100B10000E94470F2FEF81EE94E0215080409040DB
:100B2000E1F700C0000067E4DDCF8CEF8C0F813A65
:100B3000D0F46C2F80910201909103010E944A2A07
:100B4000882349F06C2F80910201909103010E944B
:100B5000822A0E94470F6C2F80910201909103011D
:100B60000E94802AC5CF80E28C0F883048F4C7707D
:100B700081E001C0880FCA95EAF70E94F80EB8CF4D
:100B8000EBE5EC0FE33040F4F0E0E357FE4F8081FB
:100B900090E0CF910C94122AE8E5EC0FE73150F485
:100BA000F0E0EE0FFF1FE15AFE4F80819181CF915F
:100BB0000C94282ACD3E30F08C2F0E945019CF91F2
:100BC0000C94221ACF910895882309F464C08238C6
:100BD00079F40E94E62981FF5EC069E380910201F9
:100BE000909103010E94802A0E94470F69E310C080
:100BF0008338B1F40E94E62980FF4DC063E58091FF
:100C00000201909103010E94802A0E94470F63E530
:100C100080910201909103010E94822A0C94470F57
:100C2000843879F40E94E62982FF35C067E4809118
:100C30000201909103010E94802A0E94470F67E4FD
:100C4000E7CF9CEF980F913A10F4682FE1CF90E234
:100C5000980F983050F4877091E001C0990F8A95F1
:100C6000EAF7892F0E94FE0ED9CF9BE5980F9330AB
:100C700020F480E090E00C94122A98E5980F9731C8
:100C800020F480E090E00C94282A8D3E20F00E9411
:100C9000AB190C94221A08951F93CF93DF93182F4A
:100CA000EB010E943A05209741F08FE99FE0019700
:100CB000F1F700C000002197F6CF812FDF91CF918F
:100CC0001F910C94E405893319F060E070E002C0D4
:100CD00060E570E00C944C06882321F00E94F80E29
:100CE0000C94470F0895882321F00E94FE0E0C9467
:100CF000470F0895CF92DF92EF92FF920F931F93C9
:100D0000CF93DF937C01162FC72FFC01D281058181
:100D100002950F700E94EE0E8823B9F0DD23A9F032
:100D20008C2F807F803421F080E2810F883068F042
:100D30008091F40282FD09C082E00E94970F0E9418
:100D4000EE0E91E0D82ED92601C0D12CCC2EC29423
:100D50008FE0C8228C2D90E0FC01EA5AFF4F0C94E2
:100D6000F1328C2F807FCF70882311F0C295C07F25
:100D7000DD2399F0CC2309F4A6C180E2810F8830ED
:100D800010F0111104C08C2F0E94F80E03C08C2F9C
:100D90000E94080F0E94470F96C1812F0E94E40510
:100DA000CC2309F4B5C180E2810F883038F11123DA
:100DB00029F18C2F0E940E0F24C08C2F807FCF70C2
:100DC000803211F0C295C07F112319F01130A1F1CA
:100DD0003DC08091F40282FF17C0DD2349F0CC238F
:100DE00029F08C2F0E94F80E0E94470F80E06CC102
:100DF00080E00E94E405CC2309F48AC18C2F0E9474
:100E0000FE0E0E94470F84C1DD2371F0002341F0E4
:100E1000013031F40E94280F8C2B0E94300F78C1D2
:100E20000E94280F8C2B1DC0002319F0013009F4FB
:100E30006FC10E943D0F25C0DD2321F0063008F070
:100E400067C10EC0053008F063C11BC0DD2361F02F
:100E5000002331F0F701858180FF35C18F708583D4
:100E60008C2F0E946C0654C1002359F0193309F0ED
:100E70003BC1FFEF27EE83E0F15020408040E1F7D7
:100E800031C18C2F0E94730643C18C2F86958695A5
:100E9000837019F0813061F03BC1DD2321F0812F97
:100EA0009C2F937002C080E090E00E94122A38C10B
:100EB000DD2321F0812F9C2F937002C080E090E011
:100EC0000E94282A2DC1812FDD2319F00E9450197C
:100ED00002C00E94AB190E94221A22C18C2F83707B
:100EE00009F045C0D11118C1412F42954695477070
:100EF000440F440F612F6F70862F90E0A0E0B0E0A8
:100F0000042E04C0880F991FAA1FBB1F0A94D2F792
:100F100014FF10C00FE010E020E030E004C0000F2C
:100F2000111F221F331F4A95D2F700951095209567
:100F3000309503C000E010E09801C695C695C370D7
:100F4000BC01CD01602B712B822B932BC23049F059
:100F500058F4C13019F00E948F09DEC00E947D094B
:100F6000DBC00E94A109D8C00E947B09D5C0DD2347
:100F700019F08C2F817001C08695882309F4CCC0AC
:100F8000412F429546954770440F440F612F6F7073
:100F9000862F90E0A0E0B0E0042E04C0880F991FD7
:100FA000AA1FBB1F0A94D2F714FF10C00FE010E075
:100FB00020E030E004C0000F111F221F331F4A95AC
:100FC000D2F7009510952095309503C000E010E011
:100FD0009801C695C695C370BC01CD01602B712BDD
:100FE000822B932BC23049F058F4C13019F00E9483
:100FF000540A92C00E94420A8FC00E94660A8CC0A6
:101000000E94B50989C0CF70DD2339F08C2F0E9472
:10101000DB09812F0E946C067FC0812F0E9473061E
:101020008C2F0E94FC0978C0123F21F128F4103F58
:1010300041F0113FC1F043C0133F19F1143F79F063
:101040003EC0DD2341F0053008F062C08C2F8F7167
:101050000E94210A5DC0063008F05AC0F7CF809187
:10106000F40282FF18C0DD2339F08C2F8F710E94AB
:10107000DB094EC0DD23C9F38C2F8F710E94FC0960
:1010800047C0DD2329F08C2F8F710E94C60940C014
:101090000E94C1093DC0DD2349F0CF718C2F0E9411
:1010A000DB0963E08C2F0E947C0F32C081E00E943C
:1010B000970F023068F182E00E94970F29C0DD236C
:1010C00031F0002391F2812F0E943A0521C00023C4
:1010D00099F2193349F49FEFE7EEF3E09150E040C5
:1010E000F040E1F700C00000812F0E94E40510C02D
:1010F0004C2F4F70612FC7010E9467110E94420B55
:101100000FC04C2F4F70612FC7010E946A1108C099
:1011100088EF8C0D843020F40E94E6290E94E104BF
:10112000DD20C9F00E94EA0E80FD15C0F701128291
:101130000E94E40E0E94DB09C7010E94CC080E94B5
:10114000E40EDF91CF911F910F91FF90EF90DF9010
:10115000CF900C94FC09DF91CF911F910F91FF90DC
:10116000EF90DF90CF9008950F931F93CF93DF936D
:10117000EC01688179818A810E941F0B8C010E9499
:10118000780A0E946909B801CE010E947A06DF91AF
:10119000CF911F910F910895CF93DF93EC01988128
:1011A00089812B813C81232B31F08F3F31F481E009
:1011B0009F3F19F403C081E001C080E080FD1DC0A5
:1011C000CE010E946F04811110C00E94EE0E882390
:1011D000A1F08A81882389F08091F40282FD0DC0FC
:1011E00082E0DF91CF910C94970FCE010E94B4085A
:1011F000CE01DF91CF910C943C04DF91CF91089503
:1012000080E090E00E94122A80E090E00E94282A6C
:101210000E94150F0E94250F0E94470F0E94531B2A
:101220000C94221A80910201909103010E94842A59
:101230000C9400090E94050F0C941209E92FE29505
:10124000EF704E2F50E0FA013297EE30F105B0F416
:10125000EA59FF4F0C94F132803F91F018F4883E28
:1012600068F40EC0843F51F40BC0883E48F0813FC3
:1012700029F406C093FB882780F9089580E008953B
:1012800081E00895FC01808191810E94140B0E94ED
:101290001E090895CF93DF9300D000D01F92CDB7E1
:1012A000DEB70F900F900F900F900F90DF91CF91BE
:1012B0000895CF93DF9300D000D000D0CDB7DEB734
:1012C00026960FB6F894DEBF0FBECDBFDF91CF914B
:1012D0000895089508950C946A090C946B090E946E
:1012E0006D096093270270932802809329029093DE
:1012F0002A020C9400090C946F090F931F9300911C
:101300002702109128022091290230912A02602B95
:10131000712B822B932B1F910F910C946F090F93BC
:101320001F930091270210912802209129023091E9
:101330002A0260237123822393231F910F910C941F
:101340006F090F931F93009127021091280220919B
:10135000290230912A0260277127822793271F9143
:101360000F910C946F090C946A090E94B309609361
:1013700023027093240280932502909326020C94FA
:10138000000960E070E0CB010C94B5090F931F9346
:1013900041E050E060E070E08A019B0104C0000F72
:1013A000111F221F331F8A95D2F7C901B8011F915F
:1013B0000F910C94B5090F931F9341E050E060E04A
:1013C00070E004C0440F551F661F771F8A95D2F73F
:1013D0008091230290912402A0912502B0912602CF
:1013E0008A019B01082B192B2A2B3B2BC901B80121
:1013F0001F910F910C94B5090F931F9341E050E09A
:1014000060E070E004C0440F551F661F771F8A9587
:10141000D2F74095509560957095809123029091F8
:101420002402A0912502B09126028A019B01082383
:1014300019232A233B23C901B8011F910F910C9452
:10144000B5090F931F9341E050E060E070E004C0E5
:10145000440F551F661F771F8A95D2F7809123028C
:1014600090912402A0912502B09126028A019B014D
:10147000082719272A273B27C901B8011F910F9177
:101480000C94B5090F931F9300912302109124022D
:101490002091250230912602602B712B822B932BF9
:1014A0001F910F910C94B5090F931F930091230284
:1014B000109124022091250230912602602371238D
:1014C000822393231F910F910C94B5090F931F93BF
:1014D00000912302109124022091250230912602CE
:1014E00060277127822793271F910F910C94B509CC
:1014F0000895292F220F920F990F890FE82FE69553
:10150000E695E695877051E001C0550F8A95EAF798
:1015100085E0E89FF0011124E550FE4F20E030E027
:1015200070E04081CB01022E02C0969587950A9407
:10153000E2F78170819584278523842781932F5F2B
:101540003F4F2530310569F70895292F220F920F5B
:10155000990F890F682F669566956695982F9770F5
:1015600085E0689FB001112440E050E080E0FB017D
:10157000E40FF51FE550FE4F208130E0092E02C038
:10158000369527950A94E2F721703327042E01C07F
:10159000220F0A94EAF7822B4F5F5F4F45305105C7
:1015A00031F70895BF92CF92DF92EF92FF920F939F
:1015B0001F93CF93DF938C01C0902302D09024021D
:1015C000E0902502F0902602809127029091280257
:1015D000A0912902B0912A02C82AD92AEA2AFB2A14
:1015E000CFE1D0E0D701C6010C2E04C0B695A79577
:1015F000979587950A94D2F780FD04C0219790F7BC
:10160000B12C07C0BC2EB8018C2F0E94A2120197EA
:10161000A9F38B2DDF91CF911F910F91FF90EF9048
:10162000DF90CF90BF900895CF93DF93EC010E949D
:10163000D20ABE010E94A212DF91CF9108951F939A
:10164000CF93DF93EB019091FA01992321F0CB0125
:101650000E94140B13C0882349F0CB010E94D20AC8
:10166000182F682FCE010E94790A04C0CB010E9476
:10167000A50A182FBE01812F0E94A212DF91CF91DF
:101680001F910895EF92FF920F931F93CF93DF93D3
:101690008C01892B09F46CC0F12CEE24E394E80151
:1016A0002196F8018491843740F4843008F051C0C9
:1016B000813081F0823019F15BC0853709F444C074
:1016C000A8F19CE7980F903708F052C08F770E94DE
:1016D000E40541C00E5F1F4FFE01849190E2980F18
:1016E000983050F48770FE2D01C0FF0F8A95EAF7FD
:1016F0008F2F0E94180F14C00E943A052DC00E5F54
:101700001F4FFE01849190E2980F983060F487702B
:10171000FE2D01C0FF0F8A95EAF78F2F0E941E0F42
:101720000E94470F19C00E94E40516C00E5F1F4FAC
:10173000FE01C491CC2381F08FE99FE00197F1F77E
:1017400000C00000C150F6CF0E5F1F4FFE01F490A5
:1017500003C00E943A058E018F2D882309F49FCF84
:10176000EFE9FFE03197F1F700C000008150F5CFBD
:10177000DF91CF911F910F91FF90EF9008951F93EC
:10178000CF93DF93C0912B0216E080912C02C817F3
:1017900099F0D0E01C9FF0011D9FF00D1124E35D36
:1017A000FD4F4081518162817381848195810E94C6
:1017B00059092196C770E9CFDF91CF911F91089504
:1017C00040915D0250915E0260915F0270916002F3
:1017D00080916102909162020C945909EF92FF92FC
:1017E0000F931F93CF93DF938091620282958F7046
:1017F00009F065C080915F02882309F460C0809180
:101800002B02F0902C0210915D0200915E0260911B
:1018100060027091610291E01F3F09F090E0C09179
:101820000001D0910101292F96E0E92E8F1509F4CE
:1018300046C06115710521F00F3F21F030E003C073
:1018400031E001C0322F90E030FD36C0E89EF0015B
:10185000E99EF00D1124DF01A35DBD4F11963C916F
:101860001197301329C03C91311326C012963C9138
:101870001297311121C013964D915C911497461B1C
:10188000570B4C175D07C0F4809162028F70806126
:1018900080936202EE5CFD4F80818F708061808357
:1018A0008DE592E00E94CC08DF91CF911F910F91BE
:1018B000FF90EF900C94BF0B01968770B7CFDF912C
:1018C000CF911F910F91FF90EF9008959F92AF924B
:1018D000BF92CF92DF92EF92FF920F931F93CF931D
:1018E000DF93CDB7DEB761970FB6F894DEBF0FBEBA
:1018F000CDBF8C0185E0F801DE011D9601900D92AF
:101900008A95E1F7D8011296EC9090915D02E091F2
:101910005E0220916002309161022115310531F0A3
:10192000EF3F31F481E09F3F19F403C081E001C033
:1019300080E0B82FB1709B2E80FD47C1D8014C913B
:1019400011965C9111971396AD90BC9014978DE50C
:10195000C82E82E0D82EF0905F02B501621B730B97
:101960002091000130910101FF2009F4D9C080913C
:1019700062026217730708F095C0282F207F09F0D4
:1019800052C05E1313C0491311C0FE2CE1100EC0EB
:101990008F708061809362020E94E00BC6010E94FA
:1019A000CC0880916202F80185834DC1AB2831F0EB
:1019B0005F3F31F481E04F3F19F403C081E001C083
:1019C00080E080FD03C081E08E2502C080E090E0D1
:1019D000F82FF170FF2E80FF1CC080912B02209108
:1019E0002C0236E0821709F40BC190E0389FF00119
:1019F000399FF00D1124E35DFD4F6181561306C040
:101A00006081461303C06281E61203C001968770AD
:101A1000E9CFFE2CEE2009F416C1809162028160AC
:101A20008093620254C05E1306C0491304C0E110E3
:101A300002C0F80199C0C8010E944209882361F1DF
:101A4000EE2051F120916202822F82958F7090E0FA
:101A5000029774F080915D0290915E0298878F8367
:101A60001986BB86AA862C87CE0107960E94CC08D1
:101A700086E0F801ADE5B2E001900D928A95E1F7BC
:101A80000E94EE0B0E94E00B0AC05E1711F1C80124
:101A90000E94420981112CC0C8010E94CC08FF2479
:101AA000F394D1C0282F207F81F77A2DB98AA88A94
:101AB0006E2D89890E944A098DE592E00E94CC082A
:101AC00086E0D6011D928A95E9F70E94E00BF12C81
:101AD000BAC04913DCCFE110DACFF8018583C80121
:101AE0000E94CC0886E0D6011D928A95E9F7ABC02A
:101AF000EE2091F220916202822F82958F7090E009
:101B000002970CF4B5CF80915D0290915E029A83AA
:101B100089831B82BD82AC822E83CE010196A6CF23
:101B20006217730708F044C0FE2CEE2009F4B4CF0E
:101B30005E1330C049132EC02091620220FD21C0E7
:101B4000822F82958F70482F50E041155105C9F0C2
:101B5000F80125834F30510541F08F5F982F929502
:101B6000907F822F8F70892B8583C8010E94CC08BB
:101B700086E0F801ADE5B2E001900D928A95E1F7BB
:101B80003CC086E0F801ADE5B2E001900D928A9587
:101B9000E1F759C0C8010E944209811169CF8091C3
:101BA0006202816080936202C8010E94CC084BC02F
:101BB0007A2DB98AA88A6E2D89890E944A0986E001
:101BC000D6011D928A95E9F718C0EE2009F464CF7A
:101BD000C8010E944209F82E882309F45DCF86E0EF
:101BE000F801ADE5B2E001900D928A95E1F78DE53F
:101BF00092E00E9434050E94EE0B0E94E00B23C08D
:101C00004D875E878D859E850E94140B292F229516
:101C10002F70223028F49F7039F0811105C00BC05D
:101C2000243028F49F7049F4805E883020F0C80189
:101C30000E94CC089F2CF92C06C0D80115969C91C7
:101C4000907F91F7F8CF8F2D61960FB6F894DEBF95
:101C50000FBECDBFDF91CF911F910F91FF90EF90FD
:101C6000DF90CF90BF90AF909F9008951F93CF9338
:101C7000DF93CDB7DEB72C970FB6F894DEBF0FBE5B
:101C8000CDBF4F83588769877A878B879C87CE0122
:101C900007960E94660C8823D1F09F8188852A854B
:101CA0003B85232B31F08F3F31F481E09F3F19F4C6
:101CB00003C081E001C080E080FD47C04F815885AE
:101CC00069857A858B859C850E9459093EC086E08E
:101CD000FE013796DE01119601900D928A95E1F78B
:101CE000FF81E8856A857B856115710531F0EF3FDD
:101CF00031F481E0FF3F19F403C081E001C080E0CE
:101D000080FD23C020912C0230E0C901019687702C
:101D1000992740912B0250E084179507F1F1F98340
:101D2000EA837D836C8396E0929FD001939FB00DF0
:101D30001124A35DBD4FFE01319601900D929A953D
:101D4000E1F780932C020E94BF0B16E080912B02DA
:101D500090912C02891771F1189FC0011124835DA5
:101D60009D4F0E94660C882329F1E0912B021E9F53
:101D7000F0011124E35DFD4F408151816281738147
:101D8000848195810E94590980912B0290E00196EF
:101D90008770992780932B02D9CF0E941A0910923D
:101DA0002C0210922B02EDE5F2E086E0DF011D929D
:101DB0008A95E9F72C960FB6F894DEBF0FBECDBF1B
:101DC000DF91CF911F91089580916302859585954C
:101DD00085950895809163028770089590916302BC
:101DE000977081E009F480E0089580916F02089572
:101DF00090916F02892B80936F0208958095909146
:101E00006F02892380936F02089510926F020895E4
:101E100090916E02892B80936E0208958095909127
:101E20006E02892380936E02089510926E020895C7
:101E300090916D02892B80936D0208958095909109
:101E40006D02892380936D02089510926D020895AA
:101E500080916402089508950C942B0F0C942C0F1C
:101E60009091F40292FD08C090916402981721F0BD
:101E7000809364020C942E0F08958091640288234D
:101E800029F01092640280E00C942E0F0895E091E6
:101E90000201F091030180916F028083E0910201C1
:101EA000F0910301908180916E02892B8083E091F3
:101EB0000201F0910301908180916D02892B808352
:101EC00080916402882381F0E0910201F091030186
:101ED0009081892B808380910201909103010E945F
:101EE0003E2A81110E943D0F8091020190910301D1
:101EF0000C94F9290C942B0F9091F40292FD10C0D0
:101F000098E0899F90011124262B209363020E9460
:101F1000DB09809163028595859585950C947A0FF0
:101F20000C94DB091092630280E00C947A0F2091EC
:101F300063028095822380936302982F977099F4AF
:101F400030E0482F082E000C550B2417350759F0A8
:101F50009091F40292FD07C08595859585950E9424
:101F6000FC090C94920F08959091F40292FB2227A1
:101F700020F9281769F080FB92F99093F402809180
:101F8000F3029091F4020E94FC0F82E00C94970FF0
:101F900008958091F40282FB882780F991E08927D7
:101FA0000C94B40F81E00C94B40F80E00C94B40F47
:101FB00080E090E00E94653321E0893E9E4F09F069
:101FC00020E0822F089582E090E00C94573383E064
:101FD00090E00C945733CF9384E090E00E94573305
:101FE000C82F82E290E00E9457332C2F30E0A901E5
:101FF000582BCA01CF910895CF93C92F682F84E041
:1020000090E00E946B336C2F82E290E0CF910C94B1
:102010006B33AB01BC018FE090E00C947D33AB01DE
:10202000BC0183E190E00C947D3360E070E0CB0173
:102030000C940F1069EE7EEF80E090E00E948933EF
:1020400060E082E090E00E946B3360E083E090E02B
:102050000E946B33109227021092280210922902DC
:1020600010922A0260E084E090E00E946B3360E00E
:1020700082E290E00E946B3360E085E090E00E9495
:102080006B3360E086E090E00E946B336FEF87E097
:1020900090E00E946B3340E050E0BA0188E090E0AD
:1020A0000E947D3360E08DE090E00E946B3340E061
:1020B00050E0BA0188E190E00E947D3360E087E162
:1020C00090E00E946B3340E050E0BA018CE190E078
:1020D0000E947D3360E070E080E290E00E948933EE
:1020E00040E050E0BA0188E190E00E947D330C941A
:1020F000DF030C941A10682F8EE090E00C946B3381
:102100000E942A2B60937F02709380028093810249
:102110009093820260937B0270937C0280937D0295
:1021200090937E02089585B7806885BF85B78068E3
:1021300085BF08950C94C51508950C949C100C94BB
:102140009C100C949F100C949C100C94A3100C9455
:102150009C100E94931088EC93E10E94DC290E945D
:10216000A7100C94A5100E949D100C949C100E9426
:10217000152B0E947E130E94A5140E947C250E94AC
:102180007A230E9480210C94A1109F92AF92BF925B
:10219000CF92DF92EF92FF920F931F93CF93DF9333
:1021A000CDB7DEB72A970FB6F894DEBF0FBECDBF0E
:1021B0000E94331581110E94801081E7A82E82E0D1
:1021C000B82E00E010E0902E802F0E94EF13D82E42
:1021D000F501C1905F01C826B1F40F5F1F4F0A30AF
:1021E000110589F78FEF89838A831B820E941E2B3A
:1021F0008160782F9D838C8349815A816B818D8189
:102200000E94EA042FC08091830281FD0E94F51391
:10221000E12CFF24F3948C2D8F21F1F00E949A1071
:10222000882399F0EE829F82DF2081E009F480E02C
:1022300088870E941E2B8160782F9A8789874E811C
:102240005F8168858A850E94EA04F801EF58FD4F96
:102250008081F826F08206C0E394FF0CF6E0EF12CE
:10226000DACFBBCF0E94B8210E9440250E94401ABD
:102270000E94E629909170028917B9F00E94E62920
:10228000809370022A960FB6F894DEBF0FBECDBFC2
:10229000DF91CF911F910F91FF90EF90DF90CF9042
:1022A000BF90AF909F900C94E1042A960FB6F894DB
:1022B000DEBF0FBECDBFDF91CF911F910F91FF9079
:1022C000EF90DF90CF90BF90AF909F90089580E007
:1022D00090E0089508952CE3829FC0011124FC0131
:1022E00026E0729FE00DF11D1124E60FF11DEE0FA7
:1022F000FF1FE450FF4F859194910895880F991F17
:10230000FC01E453FC4F859194910895CF93DF93A2
:102310000E94A712EC01811520E5920708F03FC04A
:10232000811540E4940708F0D2C0883E910500F57D
:10233000803E910508F002C1883A910570F4853A13
:10234000910508F0A6C08130910509F49FC008F4FA
:10235000F2C0049708F0F2C0EEC08F3B910508F47C
:10236000A1C0803C910508F4E6C0805C9109A5C03D
:10237000811550E2950760F4C11581E0D80708F097
:10238000DDC0CD3ED10508F4D6C0CE019065D7C0E2
:10239000811520E3920708F093C09F708EC08115CD
:1023A00045E5940708F046C0811554E5950708F007
:1023B000A6C0C11582E5D80718F5C11521E5D207D9
:1023C00008F088C0CE01F4E096958795FA95E1F77C
:1023D000282F23703C2F337081E090E002C0880FDB
:1023E000991F3A95E2F79C68922B2C2F2F70269517
:1023F000269540E2249F90011124822B932B9FC0AD
:102400009E01237033279C2F96959695C115D34531
:1024100008F065C041E050E002C0440F551F2A9506
:10242000E2F780E2989F90011124CA01822B932B3E
:102430009C6885C0811559E5950798F4C11588E514
:10244000D80708F061C0C11526E5D20708F073C0AF
:102450008C2F0E943B138F7190E0982F88279062F9
:102460006EC081154AE5940708F453C09056811553
:10247000904208F060C08D2F8F710E943B139E0127
:10248000332730628F71A901582B53C081E090E04F
:1024900056C0855AC82FD0E0C254DE4F888190E0E4
:1024A00090644DC0885AC82FD0E0CC0FDD1FC057B4
:1024B000DE4F88819981946442C00E947E113FC0A2
:1024C0009927D3FF02C0986C3AC0906C38C09F70B7
:1024D000906A35C09C2F8827816F906A30C041E098
:1024E00050E002C0440F551F2A95E2F780E2989F02
:1024F00090011124CA01822B932B9A6820C0982F37
:102500008827846F906A1BC09C2F8827806F906AF1
:1025100016C08F700E943B139E0194E0369527955C
:102520009A95E1F72F7030E0322F22273069A90108
:10253000482BCA0104C080E090E001C0CE01DF91C9
:10254000CF9108950E946B110E94861108958238E0
:10255000910569F1B0F48133910509F46DC048F437
:102560008932910509F463C08A32910509F469C082
:1025700008958533910509F455C089339105B9F063
:102580000895833E910569F138F4803E9105B1F0DC
:10259000823E910509F10895863E9105A9F1873E95
:1025A0009105B9F1843E910509F064C023C02091E2
:1025B000F30220FD4FC021FD4DC008958091F3022C
:1025C00080FD44C08091F40280FF44C08091F302FA
:1025D00084FD42C083EE4DC08091F30282FF38C07B
:1025E000F5CF8091F30282FD33C08091F40280FD2B
:1025F00031C0ECCF8091F40281FF32C08091F302B0
:1026000084FD2AC087EE35C08091F30283FF26C087
:10261000F5CF8091F30283FD21C08091F40281FD0A
:102620001FC0ECCF8091F30285FD1CC01DC08091BE
:10263000F30285FD19C016C08091F30286FD16C015
:1026400017C08091F30286FD13C010C089E311C04A
:1026500082EE0FC080EE0DC080E00BC086EE09C098
:1026600084EE07C089E205C085E303C08AE201C0A9
:1026700081E390E008959091F30292FF0DC0282F1E
:102680002871283019F4877F846006C0282F2471B0
:10269000243011F48B7F886093FF0DC0282F2871A0
:1026A000283119F4877E846106C0282F24712431D3
:1026B00011F48B7E88612091F40220FF0DC0382F29
:1026C0003871383019F4877F816006C0382F317136
:1026D000313011F48E7F886021FF0DC0282F2871C2
:1026E000283119F4877E816106C0282F217121319C
:1026F00011F48E7E886194FD877E08951092EF021A
:102700001092F0021092F1021092F2020895CF920C
:10271000DF92EF92FF926B017C010E94C51581113F
:102720000EC00E942A2BC61AD70AE80AF90AC092DC
:10273000EF02D092F002E092F102F092F202FF90EA
:10274000EF90DF90CF9008950F931F930E94C515CF
:10275000882321F01F910F910C942A2B0E942A2B81
:102760000091EF021091F0022091F1023091F202FB
:10277000600F711F821F931F1F910F9108950E9478
:10278000C51581110C941E2B0E94A413CB01089532
:1027900080E0089508950E94D80F811102C00E9420
:1027A00079100E94E30F809383020E94EB0F9093B5
:1027B000F4028093F3020E94CA130E94E70F682F6D
:1027C00070E080E090E00E947B09609123027091AC
:1027D000240280912502909126020C94B309E82FDF
:1027E000F0E0E150FD4F80810895089580EA8A95D8
:1027F000F1F7089500C008950C94F61308950C9411
:10280000FE130C94FF130C94FE130C940314F89411
:10281000E82FE295EF70F0E031A1282F2F7081E0D2
:1028200090E001C0880F2A95EAF7982F909593239E
:1028300091A392A1892B82A37894089508950C9472
:102840001E140F931F93CF93DF93C7ECD1E08991B0
:102850008F3F11F00E94071481E0CC3CD807B9F7F4
:10286000C1ECD1E007EC11E089918F3F11F00E949B
:1028700007140C171D07C1F7DF91CF911F910F911E
:102880000895CF92DF92EF92FF920F931F93CF9311
:10289000DF938C01C62FD0E0CE0189539E4F7C017F
:1028A000FC0190819F3F09F447C0D62EF894E92F90
:1028B000E295EF70F0E081A19F7021E030E001C06F
:1028C000220F9A95EAF7822B81A382A120952823D3
:1028D00022A378940E94FA13E1ECF1E047EC51E076
:1028E00031E0C12C21912F3F89F0A22FA295AF702A
:1028F000B0E090968C9190E02F7002C095958795EE
:102900002A95E2F780FD02C0832F01C080E0C82A2B
:10291000330F4E175F0731F7F70180818F3F11F0BA
:102920000E94071461E0C11001C060E08D2D0E947B
:10293000FC13C00FD11FC882DF91CF911F910F915F
:10294000FF90EF90DF90CF9008950E94DD15809169
:10295000040180910401811102C095E001C090E062
:1029600090930A0385E0891B809309030E94211438
:102970008AE0EFEFF2E0DF01982F1D929A95E9F7D8
:10298000E5EFF2E0DF011D928A95E9F785E00E940C
:1029900087150E9447040C94F115FF920F931F9323
:1029A000CF93DF9300D000D01F92CDB7DEB70E9447
:1029B000C51560910A038823E9F185E0F82E8E01A0
:1029C0000F5F1F4FF8018F2D11928A95E9F7862F1F
:1029D00090E0B80181509D4F0E94FF15882389F037
:1029E0008091090390E045E050E0B80181509D4F8F
:1029F0000E94413321E020938402892B61F410E08E
:102A000016C0809184028823D1F3F8011192FA94C0
:102A1000E9F710928402A0910903B0E0A150BD4FE4
:102A200085E0F80101900D928A95E1F711E00E948E
:102A30004F040DC070E061507D4F8091090390E01C
:102A400081509D4F0E948F160E941F1410E0812F0D
:102A50000F900F900F900F900F90DF91CF911F91DB
:102A60000F91FF900895EF92FF920F931F93CF93D2
:102A7000DF93CDB7DEB72A970FB6F894DEBF0FBE4F
:102A8000CDBF8E010F5F1F4F8AE0F80111928A952A
:102A9000E9F7F12C6F2DC8010E944114F394F5E081
:102AA000FF12F8CF4AE050E0B80185EF92E00E94B3
:102AB00041337C0121E0892B09F420E0E114F10489
:102AC00041F08AE0F801A5EFB2E001900D928A95FD
:102AD000E1F760910A0370E061507D4F45E085EFBA
:102AE00092E00E948815EF2819F40E94CD1402C0CC
:102AF00081E090E02A960FB6F894DEBF0FBECDBFFE
:102B0000DF91CF911F910F91FF90EF90089508955D
:102B1000FF920F931F93CF93DF938C01F62ED72F45
:102B2000C42F222349F081E0809387020E941E2B4C
:102B30009093860280938502809187028823C1F05A
:102B400080918502909186020E94362B059780F035
:102B5000EF2DFD2FD8014C2F50E0CD01801B910BA4
:102B6000841795071CF48D918193F7CF10928702FB
:102B7000DF91CF911F910F91FF90089555985D9827
:102B800089B185FB882780F9089580918A02811197
:102B90000DC00E947C32811102C082E001C081E040
:102BA00080938A02823011F40E94773281E0909102
:102BB0008A02913009F080E008950E94BE1580934A
:102BC00004018091040166E0882311F080E001C0D7
:102BD00086E00E94F61B0E94C51581110C943716E1
:102BE00008950E94C515811102C00C9439160895EC
:102BF00081E090918B029A3008F080E008950F9365
:102C00001F93CF93DF93EC018B0180918B028A306D
:102C100038F4B801CE010E948D1681111DC00AC082
:102C200080918802909189020E94362B843F9140C6
:102C300080F715C080918B028F3F19F08F5F8093D2
:102C40008B0280918B028A3060F00E941E2B909341
:102C500089028093880203C010928B0202C080E038
:102C600001C081E0DF91CF911F910F9108950C94E5
:102C700017280C941A28EF92FF920F931F93CF936B
:102C8000DF937901C82F880FDD0B41155105A9F09D
:102C90008AE08C9FF0018D9FF00D1124EB5FFE4FB9
:102CA0008381948184579D4F228130E042175307DE
:102CB00008F49A01A9010E944E33CE010E942429F2
:102CC000892B09F50115110501F18AE08C9FF001AE
:102CD0008D9FF00D1124EB5FFE4F458150E00417EE
:102CE000150708F4A8018AE08C9FF0018D9FF00D74
:102CF0001124EB5FFE4F6681778164577D4FC701DA
:102D00000E944E3302C080E001C081E0DF91CF918C
:102D10001F910F91FF90EF9008950C943F180C9421
:102D20006B18AF92BF92CF92DF92EF92FF920F9308
:102D30001F93CF93DF93C82F7B01D42F69015801D4
:102D4000FB0160817181828193810E94452B6436F1
:102D500071058105910510F4DD23A1F000E010E07C
:102D600020E030E0A501B6018C2F0E943B16C82F51
:102D7000882349F00E942A2BF701608371838283A4
:102D8000938301C0C1E08C2FDF91CF911F910F91F0
:102D9000FF90EF90DF90CF90BF90AF9008950F938A
:102DA0001F93CF93DF93CDB7DEB728970FB6F89474
:102DB000DEBF0FBECDBFCE0101960E94732041E061
:102DC0008885811101C040E008E010E09E012F5F7E
:102DD0003F4F64EB72E084E00E949116182F81113E
:102DE0000E947020812F28960FB6F894DEBF0FBE88
:102DF000CDBFDF91CF911F910F9108950F931F9336
:102E0000CF93DF931F92CDB7DEB70E945F23882355
:102E100019F00E94742301C080E08983E091D10100
:102E2000F091D20141E09285981301C040E001E0A9
:102E300010E09E012F5F3F4F60EB72E083E00E9445
:102E400091160F90DF91CF911F910F9108950F93DD
:102E50001F93CF93DF9300D000D0CDB7DEB7609142
:102E6000AC027091AD028091AE029091AF020E94CF
:102E7000452B643671058105910528F10E94A41344
:102E8000DC01CB010296A11DB11D89839A83AB831E
:102E9000BC8300E010E020E030E044E050E0BE0100
:102EA0006F5F7F4F82E00E943B16182F882361F0EE
:102EB0000E942A2B6093AC027093AD028093AE0205
:102EC0009093AF0201C011E0812F0F900F900F90EF
:102ED0000F90DF91CF911F910F910895AF92BF9204
:102EE000CF92DF92EF92FF920F931F93CF93DF93D6
:102EF0007C015B016A010E94F815811103C001E0A9
:102F000010E002C00AE010E0C1E0D0E0F894B501A2
:102F1000C701F60109957894811115C021960C1707
:102F20001D0794F0CC9F9001CD9F300D300D1124E2
:102F300080E090E045E34A95F1F7000001968217A2
:102F40009307C1F7E3CF81E0DF91CF911F910F91FC
:102F5000FF90EF90DF90CF90BF90AF900895AF9229
:102F6000BF92CF92DF92EF92FF920F931F93CF9376
:102F7000DF9300D000D000D0CDB7DEB77B01C0908A
:102F8000D101D090D20101E010E09E012A5F3F4FB5
:102F900040E050E060E070E080E00E943B16182FB7
:102FA000882309F43EC056018FEFA81AB80A609131
:102FB000A8027091A9028091AA029091AB020E948E
:102FC000452B643671058105910518F105E010E087
:102FD0009E012F5F3F4F40E050E060E070E081E0F5
:102FE0000E943B16182F65E070E0C5010E947D2508
:102FF00091E02E81281390E0192339F10E942A2BA9
:103000006093A8027093A9028093AA029093AB02E6
:1030100011C065E070E0C5010E947D259E81891385
:10302000D5CF85E0F6013196DE01119601900D9223
:103030008A95E1F7112349F085E0FE013196A3EA74
:10304000B2E001900D928A95E1F785E0E3EAF2E0C3
:10305000D70101900D928A95E1F7812F26960FB640
:10306000F894DEBF0FBECDBFDF91CF911F910F91BE
:10307000FF90EF90DF90CF90BF90AF9008950F93A7
:103080001F93CF93DF93EC018B014FEA57E10E942E
:103090006E178823D1F047E257E1B801CE010E94B4
:1030A0006E17882391F04EEF56E1B801CE010E94D1
:1030B0006E17882351F04FEC56E1B801CE01DF9135
:1030C000CF911F910F910C946E1780E0DF91CF91FB
:1030D0001F910F9108950F931F93CF93DF93F8944F
:1030E000C091D101D091D201CE01019625E0FB0122
:1030F000DC0101900D922A95E1F765E070E00E94F5
:103100007D2588837894F8946E817F818885998560
:1031100000919F021091A0022091A1023091A20281
:10312000601771078207930751F060939F027093B5
:10313000A0028093A1029093A2020E948713789428
:10314000F8948A850E948B247894F8948A8988233D
:1031500031F060E0CE010B960E944B211A8A7894E0
:10316000DF91CF911F910F9108950E943D2D0E94F4
:10317000B7100C94492D0E944D2D0E94C5100C943F
:10318000672D0E94A52A0E94242D0E94A9100E944A
:10319000B5180E94BB180E94B310FBCF8091BE02ED
:1031A00080FF0BC060913C0185E0689FB001112455
:1031B00075956795759567952BC081FF09C06091DE
:1031C0003C0185E0689FB00111247595679520C08A
:1031D00082FF07C060913C0185E0689FB001112427
:1031E00017C09091BD029923D1F060913B019617D1
:1031F00088F720913C0185E0289F90011124929F3F
:10320000A001939F500D112470E0CA010E94BB32AF
:103210006038710540F46115710519F406C065E068
:1032200070E0862F08958FE7089581E008958091DA
:10323000BE0280FF08C06091380170E07595679507
:103240007595679521C081FF06C06091380170E0D7
:103250007595679519C082FF04C06091380170E0D0
:1032600010C09091BC02992399F060913701961794
:10327000A0F780913801899FC001112470E00E945D
:10328000BB326038710540F46115710519F406C050
:1032900061E070E0862F08958FE7089581E008953A
:1032A0008D3E21F40E94CE18819504C08E3E29F4F3
:1032B0000E94CE188093C20208958F3E21F40E948E
:1032C000CE18819504C0803F29F40E94CE188093C7
:1032D000C1020895893F19F40E94171905C08A3F59
:1032E00031F40E94171981958093C30208958B3F92
:1032F00021F40E941719819504C08C3F29F40E9483
:1033000017198093C40208959FE0980F983078F4BD
:1033100021E030E0A90102C0440F551F9A95E2F761
:10332000CA019091C002892B8093C00208958D3FFD
:1033300021F48091BE0281600BC08E3F21F4809108
:10334000BE02826005C08F3F29F48091BE02846076
:103350008093BE0208958D3E39F49091C20297FF8A
:1033600035C01092C20259C08E3E29F49091C2021B
:103370001916BCF32BC09091C1028F3E29F497FF20
:1033800025C01092C10249C0803F19F41916CCF330
:103390001DC09091C302893F29F41916BCF4109204
:1033A000C3023BC08A3F19F497FF10C0F8CF8B3F90
:1033B00039F49091C40297FF09C01092C4022DC045
:1033C0008C3F21F49091C4021916BCF39FE0980F32
:1033D000983080F421E030E0A90102C0440F551F6D
:1033E0009A95E2F7CA0180959091C0028923809353
:1033F000C00213C08D3F21F48091BE028E7F0BC0AE
:103400008E3F21F48091BE028D7F05C08F3F29F44D
:103410008091BE028B7F8093BE028091C102811198
:1034200006C08091C202811102C01092BD0280913B
:10343000C302811106C08091C402811102C01092A2
:10344000BC0208950E941E2B2091C102211104C0CC
:103450002091C202222321F09093BB028093BA02F2
:103460002091C302211104C02091C402222321F023
:103470009093B9028093B8028FEB92E00C94042AE7
:10348000EF92FF920F931F93CF93DF9300D000D062
:1034900000D0CDB7DEB786E0EFEBF2E0DE011196AB
:1034A00001900D928A95E1F7E090C102F090C2027E
:1034B0000091C3021091C4021092C1021092C20284
:1034C0001092C3021092C402E11003C0FF2009F45D
:1034D0005DC08091BA029091BB020E94362BAC0174
:1034E0009091BD02992339F020913D0130E02417DD
:1034F000350758F04BC020913E018AE0289F90018B
:1035000011242417350718F041C09F3F19F09F5F21
:103510009093BD02EE2061F00E94CE181E1414F0AC
:103520009FEF01C091E0989F902D11249093C102CC
:10353000FF2061F00E94CE181F1414F09FEF01C00D
:1035400091E0989F902D11249093C2023091C10276
:103550003323E1F02091C2022223C1F045EB340372
:10356000C0011124992319F09093C10203C081E096
:103570008093C10235EB2303C0011124992319F074
:103580009093C20203C081E08093C202011103C084
:10359000112309F45DC08091B8029091B9020E9494
:1035A000362BAC019091BC02992339F0209139015E
:1035B00030E02417350758F04BC020913A018AE0DB
:1035C000289F900111242417350718F041C09F3F10
:1035D00019F09F5F9093BC02002361F00E941719BD
:1035E000101614F09FEF01C091E0989F902D1124C8
:1035F0009093C302112361F00E941719111614F061
:103600009FEF01C091E0989F902D11249093C402E8
:103610003091C3023323E1F02091C4022223C1F090
:1036200045EB3403C0011124992319F09093C30290
:1036300003C081E08093C30235EB2303C001112452
:10364000992319F09093C40203C081E08093C402CF
:103650008091C10281110BC08091C202811107C00B
:103660008091C302811103C08091C40281110E9424
:10367000221AEB82FC820D831E8386E0FE013196C6
:10368000AFEBB2E001900D928A95E1F726960FB666
:10369000F894DEBF0FBECDBFDF91CF911F910F9188
:1036A000FF90EF900895EFEBF2E086E0DF011D92CE
:1036B0008A95E9F71092BD021092BC021092BE02E8
:1036C0000895EF92FF920F931F93CF93DF938B0197
:1036D000682F11110AC0442329F0E82FF0E0ED51C2
:1036E000FB4F6491762F862F75C0212F30E0E82F95
:1036F000F0E0442321F0ED51FB4FE491F0E046E08F
:10370000049FC0011124CFEFD0E0BE010E94A73278
:103710004BEA4603C001479F900D1124800F911D75
:10372000800F911D982F990F890FAE01421B530BEB
:103730004E9FD0014F9FB00D5E9FB00D11249B2F67
:10374000189FA0011124452F55278E01041B150B2E
:103750000E9FA0010F9F500D1E9F500D11247E0142
:10376000E81AF108E29E8001E39E100DF29E100D12
:103770001124212F3327C21BD30BCE9F9001CF9F43
:10378000300DDE9F300D112462307105A9F048F430
:103790006115710569F061307105C9F48B2F752FC2
:1037A0000DC06430710581F058F06630710579F410
:1037B0007E2F8B2F932F0DC0832F7B2F9E2F09C021
:1037C0008E2F7B2F952F05C08E2F732F02C07E2F3B
:1037D000852F692FDF91CF911F910F91FF90EF906F
:1037E000089541E00E94611B08950895E2E4F1E02C
:1037F0008083618308950E94F11B0895CF93DF9326
:10380000762FE901682F842F0E94FB1B7983688340
:103810008A83DF91CF91089580910C03282F2695FC
:1038200030E02115310519F48170826005C0253220
:10383000310524F08170886480930C03089588E03A
:1038400090E00C945F33CF92DF92EF92FF926B0186
:103850007C010E940C1CB701A60188E090E0FF905B
:10386000EF90DF90CF900C947D33ECE0F3E083E0B9
:10387000808311828FEF828383831482A2EDB2E072
:1038800012968C911297836012968C93608171814D
:10389000828193810C94231C80910C0380FF02C0D1
:1038A0008695089580E0089590911003933018F460
:1038B0009F5F90931003882351F060910C037091E7
:1038C0000D0380910E0390910F030C94231C089517
:1038D00081E00C94541C90911003992319F091509D
:1038E00090931003882351F060910C0370910D03A5
:1038F00080910E0390910F030C94231C089581E096
:103900000C946B1C70E00C945125609143018091E4
:103910000C0380FF0AC08091420123E0829FC00116
:1039200011248F5E9C4F0C94821C809144019091D5
:103930004501891780F7E82FF0E09F01220F331F20
:10394000E20FF31FEF5EFC4F1182108212828F5F35
:10395000F0CF90910C0390FF16C0909144012091FC
:103960004501921770F4E92FF0E0DF01AA0FBB1FA9
:10397000EA0FFB1FEF5EFC4F8183608342839F5FF2
:10398000F0CF0C94851C0895CF93DF9300D01F9245
:10399000CDB7DEB790910C0390FF0AC09E012F5F58
:1039A0003F4F0E94FE1B4B8169818A810E94A91CA6
:1039B0000F900F900F90DF91CF910895CF93DF93E9
:1039C000EC01EC81F0E0E252FC4F4491ECE0F3E0DA
:1039D000628181810E94C41C8C818F5F8C83DF9106
:1039E000CF910895CF93DF93EC01ECE0F3E04381B6
:1039F00062818C810E94C41C8C818F5F8C83DF91DB
:103A0000CF9108950F931F93CF93DF9300D01F9210
:103A1000CDB7DEB78C018091C50281110AC09E012D
:103A20002F5F3F4F4FEF6FEF0E94FE1B8A81809305
:103A3000C502F8018481813051F028F0823061F4B0
:103A40004091C5020AC08091C50240E007C0609164
:103A5000C50240E080E003C040E080E060E00E94FA
:103A6000A91CF801848190E0019663E070E00E9457
:103A7000BB3284830F900F900F90DF91CF911F91F5
:103A80000F910895AF92BF92CF92DF92EF92FF9283
:103A90000F931F93CF93DF9300D01F92CDB7DEB764
:103AA000182FF62E042FE22E90910C0390FF7EC06B
:103AB000E92FE695AE2FB0E0AD52BE4F8C918093CA
:103AC000D2029E7F923061F49E012F5F3F4F812F83
:103AD0000E94FE1B4B8169818A810E94A91C43C000
:103AE000823019F400910F033EC0863019F4109112
:103AF0000D0339C08930D9F38931A9F5E9518E2FE9
:103B00008170D82EE695F0E0E252FB4FA590B4907C
:103B1000C12CBB2460914601C61618F52C2D30E04F
:103B2000A29EC001A39E900DB29E900D112470E044
:103B30000E94A732812FD11002C0860F01C0861BC0
:103B400090914401290F311DA901440F551F240FE5
:103B5000351F2F5E3C4F402F6F2D0E94FE1BC394DC
:103B6000D9CF0E94851C80910D03181308C0809145
:103B70000E03F81204C080910F03081729F08091FA
:103B8000D40282608093D40210930D03F0920E034E
:103B900000930F03EE2051F060910C0370910D0320
:103BA00080910E0390910F030E94231C0F900F90A1
:103BB0000F90DF91CF911F910F91FF90EF90DF90C9
:103BC000CF90BF90AF900895ECE0F3E09181282F63
:103BD0004381628188E0890F0C94421D81E00C943E
:103BE000E41DECE0F3E09181282F4381628188EFAE
:103BF000890F0C94421D81E00C94F11DECE0F3E080
:103C0000628121E1620F08F46FEF282F43818181E7
:103C10000C94421D81E00C94FE1DECE0F3E0628107
:103C200021E1621B08F460E0282F438181810C941C
:103C3000421D81E00C940D1EECE0F3E0438121E194
:103C4000420F08F44FEF282F628181810C94421DAE
:103C500081E00C941C1EECE0F3E0438121E1421B67
:103C600008F440E0282F628181810C94421D81E09C
:103C70000C942B1E21E00C94421D20E00C94421D5C
:103C8000FF920F931F93CF93DF93EC01F12C0FEF73
:103C900010E060914601F616F0F4809144012F2D5A
:103CA00030E0280F311DC901880F991F280F391FD7
:103CB0002F5E3C4F70E0C8010E94BB32962F8C8172
:103CC00040910F0360910E03F99E800D11240E9414
:103CD000FE1BF394DECF0E94851C9A818C8190FF9D
:103CE00002C08F5F01C081508C83DF91CF911F9103
:103CF0000F91FF9008958F929F92AF92BF92CF92B3
:103D0000DF92EF92FF920F931F93CF93DF93EC011B
:103D10008A8180FF03C0BB24BA9402C0BB24B39441
:103D20008C8181110DC081E0B81206C080914601DE
:103D300081508093C70202C01092C70281E08C8339
:103D4000A12C4CE0942E80914601A81608F044C0A6
:103D500080914401CA2CD12C8601080F111DC80185
:103D6000880F991F080F191F0F5E1C4FF801118251
:103D70001082128234E0E32EF12C812C8091C70254
:103D8000880D8D302CF0692D0E949932892F05C045
:103D900087FF03C090914601890F082E000C990BF4
:103DA000C816D90691F480910F038E9DA0018F9DB6
:103DB000500D11245595479555954795980160915B
:103DC0000E0380910D030E94FE1B8B0CF1E0EF1A95
:103DD000F108A1F6A394B7CF0E94851C8091C70279
:103DE00091E0B9120EC0811107C080914601815047
:103DF0008093C7021C820FC081508093C702BC828F
:103E00000AC090E001966091460170E00E94BB32CA
:103E10008093C7028C83DF91CF911F910F91FF9008
:103E2000EF90DF90CF90BF90AF909F908F900895CC
:103E30001F93CF93DF93EC018C81811109C081E046
:103E40008C831092C60292E09093410180934001CE
:103E50008091440190914501891770F4E82FF0E0BA
:103E60009F01220F331FE20FF31FEF5EFC4F118201
:103E7000108212828F5FF0CF10E06091460116171A
:103E8000C0F5E12FF0E070E0CF010E94BB3220913D
:103E90004401820F2091C602022E000C330B90E0E9
:103EA000E217F307CCF020914101022E000C330BF6
:103EB0002E173F078CF09C01220F331F820F931F98
:103EC0009C012F5E3C4F40910F0360910E03809147
:103ED0000D030E94FE1B0BC0FC01EE0FFF1F8E0F97
:103EE0009F1FFC01EF5EFC4F1182108212821F5F48
:103EF000C4CF0E94851C809140012091C602280FEA
:103F00002093C60290914101980F90934101191698
:103F10005CF4022E000C330B4091460150E04150FE
:103F200051092417350734F0819580934001813081
:103F300009F41C82DF91CF911F9108958F929F9277
:103F4000AF92BF92CF92DF92EF92FF920F931F93A7
:103F5000CF93DF938C01FC014481C42FD0E09E01FC
:103F6000DE010E94FF329B01AC010E9415336B0100
:103F70007C01E0E2F0E0EC1BFD0BA5E5B0E09B016D
:103F8000AC010E9415334B015C019F01DF010E94CF
:103F9000F7329B01AC010E9420339B01AC012C0D38
:103FA0003D1D4E1D5F1DC501B4010E94CF32C22FC1
:103FB000D22F2A3228F4F3E02F9F900111240DC054
:103FC00025E530E02C1B3109C901880F991F280F06
:103FD000391F37FF02C02F5F3F4F35952795C22FFE
:103FE000C095F12C85E5E82EED1A80914601F81672
:103FF000C8F4F1FC02C08E2D01C08D2F90914401B8
:104000002F2D30E0290F311DA901440F551F240F1A
:10401000351F2F5E3C4F4C2F60910E030E94FE1BFC
:10402000F394E3CF0E94851CF8018481811102C0C2
:1040300091E003C0803219F49FEF90933F0190917B
:104040003F01890FF8018483DF91CF911F910F9178
:10405000FF90EF90DF90CF90BF90AF909F908F90A8
:1040600008950F931F93CF93DF93EC0100E010E0CE
:1040700080914601282F30E00217130724F5909114
:1040800044019801290F311DA901440F551F240F28
:10409000351F2F5E3C4F869590E04C81081719071D
:1040A0001CF4442331F002C0411103C040910F03BE
:1040B00001C040E060910E0380910D030E94FE1B41
:1040C0000F5F1F4FD5CF0E94851C8C8190E0019619
:1040D000817099278C83DF91CF911F910F91089563
:1040E0001092D402089525E0ECE0F3E0DC010190A9
:1040F0000D922A95E1F72091D2023091D30240919E
:10410000D402FC01258336834783089560910C0314
:10411000669570E04BE050E087E491E00E94343314
:10412000892B19F481E08093D3020E94BF139093EE
:10413000CC028093CB028091D40284608093D4021D
:104140000895E2EDF2E01182828184608283089515
:1041500090910C0390FF3AC09170811102C092605F
:1041600006C0853210F0986402C0880F982B909397
:104170000C038091D40281608093D402662351F0B5
:1041800060910C0370910D0380910E0390910F03C9
:104190000E94231C60910C03669570E04BE050E098
:1041A00087E491E00E943433892B19F00E94A1200A
:1041B00002C00E94862081E08093CE0240910F03CE
:1041C00060910E0380910D030C943D1E0895682F9D
:1041D00090910C03969581E0890F853208F081E07B
:1041E0000C94A82081E00C94E720682F90910C0398
:1041F00096958FEF890F09F484E20C94A82081E052
:104200000C94F52061E00C94A820ECE0F3E08081B0
:104210008160808386950C94022160E00C94A82034
:10422000ECE0F3E080818E7F808360817181828108
:1042300093810E94231C0E94A120E2EDF2E0828182
:10424000816082832FEF80E792E021508040904090
:10425000E1F700C000000C94851C80910C0380FDE8
:104260000C9410210C940521ECE0F3E080818E7F0A
:1042700080830E94A120E2EDF2E08281816082834E
:104280002FEF80E792E0215080409040E1F700C09E
:1042900000000C94851C1F93CF93DF93EC01162F25
:1042A0008F8180FF0FC0888180FF0AC080910C033E
:1042B000816080930C03888186950E94A82002C0AB
:1042C0000E9434218F8181FF06C0212F4B816A819A
:1042D00089810E94421D8F8182FF08C08E818823C0
:1042E00019F00E94862002C00E94A1208F8183FFC6
:1042F00003C081E08093CE02DF91CF911F9108959A
:104300008091D102811133C00E94D80F811104C065
:104310000E9479100E94351C0E941F1C60930C03A0
:1043200070930D0380930E0390930F038091D4023A
:1043300083608093D4026E7F61F40E94351C0E94DA
:104340001F1C60930C0370930D0380930E039093D6
:104350000F030E940C1C0E94A12080910C0380FF7F
:1043600003C086950E940D2181E08093D1020895BB
:10437000EF92FF920F931F93CF93DF938091D3021D
:10438000882309F4ABC08091D202E0910C03E6953A
:10439000E81BE093CD02823049F4F0E0E652FC4F96
:1043A000E491CE2FD0E00EED1CE149C0863049F4F7
:1043B000F0E0E952FC4FE491CE2FD0E002EF1CE197
:1043C0003EC0893051F4E695F0E0EC52FC4FE491A8
:1043D000CE2FD0E000E41EE132C08F3051F4E695DC
:1043E000F0E0EF52FC4FE491CE2FD0E00BE71EE15E
:1043F00026C0853149F4F0E0E253FC4FE491CE2F22
:10440000D0E008E11FE11BC0883181F0833239F42C
:10441000ECECF3E0C591D49102E01DE110C08432D0
:1044200051F4C4EFD1E001E310E209C0C8E2D0E0EA
:104430000EE91FE104C0C0EDD7E005EF1BE180915C
:10444000CE02882361F01092CE020E94BF13909397
:10445000CC028093CB021092D0021092CF020E9425
:10446000BF13E091CB02F091CC029C012E1B3F0BBD
:104470002F3F3F4798F52091CA022223B1F01092B6
:10448000CA022091C8023091C902821B930B8F3F50
:104490009F4758F4205D3A483093C9022093C802E0
:1044A0008091D40288608093D402E090CF02F09093
:1044B000D002EC0FFD1FF093CC02E093CB028BEC0B
:1044C00092E0F80109958091CF029091D002892B5A
:1044D00029F4EF2819F081E08093CA02DF91CF918F
:1044E0001F910F91FF90EF900895882311F0FA012A
:1044F00001C0FB010994CF93DF93C82FD62F0E94F0
:104500004C1C8C1740F00E944C1C8D1720F4DF913E
:10451000CF910C94F2208C2FDF91CF910C9402213B
:104520001F93CF93DF93FB0112811111C3C0EC01E4
:104530000E94F50E8272CD3CFCE5DF0709F49AC0BB
:10454000A8F5C73CECE5DE0709F476C0A8F4C43C46
:104550009CE5D90709F45FC028F4C33CDC4509F4A5
:1045600057C054C0C53C9CE5D90709F459C0C63CA6
:10457000DC4509F45CC04AC0CA3CFCE5DF0709F42D
:104580006AC050F4C83CECE5DE0709F45AC0C93CE7
:10459000DC4509F45BC03AC0CB3C9CE5D90709F483
:1045A0005FC0CC3CDC4509F460C030C0C23DFCE5D6
:1045B000DF0709F46FC088F4CF3C9CE5D90709F404
:1045C00060C008F45CC0C03DFCE5DF0709F45CC0D6
:1045D000C13DDC4509F45BC019C0C53D9CE5D90768
:1045E00009F460C050F4C33DFCE5DF0709F455C091
:1045F000C43DDC4509F454C009C0C63D9CE5D9075B
:1046000009F455C0CE35DD4509F454C011E052C05F
:104610000E942D214FC04FEF50E262EF70E204C0C4
:1046200042EF50E26FEF70E20E94752243C04BEF01
:104630005DE16EEE7DE1F8CF4EEE5DE16BEF7DE189
:10464000F3CF49E15EE16AE07EE1EECF4AE05EE170
:1046500069E17EE1E9CF47E35EE168E27EE1E4CF34
:1046600048E25EE167E37EE1DFCF4FE75CE168E6C9
:104670007CE1DACF48E65CE16FE77CE1D5CF81E011
:1046800017C065E082E010C068E086E00DC06EE013
:1046900089E00AC064E18FE007C067E185E104C0FA
:1046A00088E106C062E289E10E947B2203C083E2C6
:1046B0000E940221812FDF91CF911F910895809157
:1046C00035038170089586E090E00C945733682F8D
:1046D00086E090E00C946B3380913503847089639D
:1046E000809335030C9467238091350386958695D6
:1046F000869508950E94D80F811104C00E947910F8
:104700000E946C230E94632380933503282F2695F3
:104710002695269530E02830310524F0877088638F
:10472000809335038091350380FF04C0869586957C
:10473000869501C080E00C948B2420913503822F54
:10474000869586958695482F50E04730510554F45C
:104750008F5F982F990F990F990F822F8770892B50
:1047600080933503809135038160809335030E94E7
:104770006723809135038695869586950C948B24C6
:1047800080913503982F969596959695A1F0915E18
:10479000990F990F990F8770892B80933503887F24
:1047A00091E009F490E08091350390FB80F98093CB
:1047B00035030E94672380913503869586958695FB
:1047C0000C948B248091350380FD13C0816080930D
:1047D0003503813019F489E08093350380913503E6
:1047E0000E946723809135038695869586950C9463
:1047F0008B2408958091350380FF08C08E7F8093BD
:1048000035030E94672380E00C948B2408958091E7
:10481000350380FD0C94FA230C94E2239091350328
:10482000892F8695869586958F5F8F7197708830D2
:1048300038F4880F880F880F892B8093350302C0C6
:104840009093350380913503887F91E009F490E0DF
:104850008091350390FB80F9809335030E94672394
:10486000809135038695869586950C948B248830A7
:1048700008F087E0909135039770282F220F220FC0
:10488000220F922B90933503987F21E009F420E0CA
:104890009091350320FB90F9909335030C948B2471
:1048A0000E943724809135030C9467239C01FB01FF
:1048B0008281882349F12E3BFCE53F07C9F040F493
:1048C0002C3BECE53E0769F02D3B3C4561F008953B
:1048D000203C9CE5390791F070F0213C3C4589F083
:1048E000089587E001C080E00E94502480E0089590
:1048F0000E94C023FBCF0E949D23F8CF0E94072473
:10490000F5CF0E940E24F2CF81E00895259A2D98CC
:1049100008952D9808958F929F92AF92BF92CF9253
:10492000DF92EF92FF920F931F93CF93DF93C82FE5
:10493000883050F4811109C0809180008F77809376
:1049400080000E94892406C0C7E0809180008068B2
:1049500080938000A0918600B09187002C2F30E0DA
:104960000E94FF3227E030E040E050E00E94CF326A
:104970000027122F232F342F012F122F232F3327FD
:1049800080918600909187006CE070E00E94A732D1
:104990006017710730F0C80169E070E00E94A7322B
:1049A0005EC08091860090918700E0908600F09034
:1049B0008700E0918600F0918700C6E0D0E0BE015C
:1049C0000E94A732060F171F211D311D48015901F2
:1049D00085E0880C991CAA1CBB1C8A95D1F7C701DD
:1049E000BE010E94A7326F01E12CF12CA7019601B4
:1049F000260F371F411D511DC501B4010E94CF3242
:104A000069017A01E0918600F0918700CA01B9013D
:104A10000E9489329B01AC01DF010E9415339B018A
:104A2000AC01C701B6010E948932DC01CB012FE045
:104A3000B695A795979587952A95D1F70091860009
:104A40001091870020E030E0081719072A073B077C
:104A500028F46091860070918700CB01BC017093AF
:104A6000890060938800DF91CF911F910F91FF9093
:104A7000EF90DF90CF90BF90AF909F908F90089570
:104A800008950E94862482E88093800089E18093C3
:104A900081008FEF9FEF90938700809386000C94A6
:104AA0007A23249A25B12F7E35B130614FB7F8941F
:104AB000FC01CB01880F991F680F791F6E0F7F1FB4
:104AC000E617F70789F0819198E035B9000000C03A
:104AD00087FF25B9880F000000C000C000C025B9BD
:104AE00000C09A9591F7ECCF4FBF8FE594E0019706
:104AF000F1F700C0000008950895FC01680F791FC8
:104B00008FEF91E3E617F70771F02191822728E0F4
:104B100030E087FF03C0880F892701C0880F21502C
:104B20003109B9F7EFCF0895CF93DF93EC01FB0183
:104B30008281882309F426C1C430FDE5DF0760F4D3
:104B4000CB3F9CE5D90768F49E0122503C452431B7
:104B5000310508F018C105C0C236EDE5DE0709F0E1
:104B600012C10E94EB0F9093F4028093F302C031C4
:104B7000FCE5DF0709F4CAC008F041C0C8309CE575
:104B8000D90709F4A4C0F0F4C430FCE5DF0709F448
:104B90008CC068F4C2309CE5D90709F482C0C330E8
:104BA000DC4509F0E5C08091F3028260DFC0C630C9
:104BB000FCE5DF0709F483C008F085C08091F302AB
:104BC0008860D4C0CC309CE5D90709F490C068F463
:104BD000CA30FCE5DF0709F47EC008F084C00E94FB
:104BE0001A098091F3028068C1C0CE309CE5D907D4
:104BF00009F481C008F086C08091F30294C0CD3FD3
:104C0000FCE5DF0709F47BC038F5C4319CE5D90722
:104C100009F49AC058F4C231FCE5DF0709F47AC000
:104C200008F07EC08091F3028F7BA0C0CB3F9CE553
:104C3000D907F1F108F03FC0C531DC4509F098C053
:104C40008091F30282FB222720F991E0922790FBCA
:104C500082F990FB83F98AC0C1308DE5D80709F449
:104C600067C050F48091F402CF3FECE5DE07C1F15C
:104C700008F05BC08D7F65C0C3308DE5D80709F4AF
:104C800071C008F46DC0C236DD4509F071C0809175
:104C9000F30284FB222720F991E0922790FB84F90C
:104CA00065C08091F302816061C08091F30216C0FB
:104CB0008091F40216C08091F402826042C080911B
:104CC000F302806153C08091F30280624FC08091F3
:104CD000F30280644BC08091F3028860846046C018
:104CE000826081602EC08091F3028E7F3FC08091F0
:104CF000F3028D7F3BC08091F302877F37C08091A4
:104D0000F40214C08091F3028F7E30C08091F302D0
:104D10008F7D2CC00E941A098091F3028F7726C0E4
:104D20008091F302877F8B7F21C08D7F8E7F09C0AA
:104D30008091F402982F909591708E7F892B90FB33
:104D400081F98093F40214C00E941A098091F30241
:104D500087FB222720F991E0922790FB87F906C074
:104D600081E001C080E00E947B1002C08093F302CA
:104D70008091F3029091F4020E94FC0F0E941A09A4
:104D800080E001C081E0DF91CF910895CF93DF9360
:104D900086319C4541F5EB010E94F50E982F8A81E2
:104DA0002091020130910301882379F09A7A81E001
:104DB00009F480E08093D502911102C069E201C03C
:104DC00065E3C9010E94802A0AC08091D502811141
:104DD00002C069E201C065E3C9010E94822A0E9403
:104DE000470F80E001C081E0DF91CF9108950F93DC
:104DF0001F93CF93DF93C42FD22FFC01828188238E
:104E0000C9F04093D8020E941E2B9093D702809342
:104E1000D60280E28C0F883008F057C0C77081E05E
:104E200001C0880FCA95EAF7DF91CF911F910F91CA
:104E30000C946C068091D802481330C08091D60241
:104E40009091D7020E94362B883C910538F510E2EC
:104E50001D0FCD17B9F080E28C0F883040F4C77079
:104E600081E001C0880FCA95EAF70E9473061830E6
:104E700028F581E09D2F977001C0880F9A95EAF779
:104E80000E946C06802F0E9463061830F0F4D770E1
:104E900081E001C0880FDA95EAF70AC080E28C0F42
:104EA000883098F4C77081E001C0880FCA95EAF78E
:104EB000DF91CF911F910F910C947306802FDF919A
:104EC000CF911F910F910C946306DF91CF911F91A9
:104ED0000F9108950F939C01CB01243F4CE53407BB
:104EE00031F188F4293DFCE53F07D9F02A3D4CE536
:104EF000340779F1283D3C45A9F506E221EE41EE63
:104F000068ED7CE52BC0263FFCE53F07E1F0A8F00B
:104F1000273F3C4539F507E225EE46EE67EF7CE595
:104F20001DC007E225EE45EE69ED7CE517C006E2FF
:104F300021EE40EE64EF7CE511C007E225EE44EE81
:104F400065EF7CE50BC006E221EE42EE66EF7CE504
:104F500005C008E221E045EE6AED7CE50E94F726F7
:104F600080E008C0FC018281882319F01092D802E9
:104F700001C081E00F9108958EE1489B02C08150ED
:104F8000E1F7489BFECF0895589880E28A95F1F7A3
:104F9000589A0895FC012AE02A95F1F728E090E05C
:104FA00080E031E040E14A95F1F7880F489B02C06C
:104FB0008160932700C0000040E14A95F1F721503D
:104FC00089F720E12A95F1F729B100C0000030E10E
:104FD0003A95F1F7217092272081920F90830895DE
:104FE000EF92FF920F931F93CF93DF931F92CDB752
:104FF000DEB719828C017C01E60EF11C0E151F052F
:1050000051F00E94BC27CE0101960E94CA27F801E8
:1050100081938F01F3CF81E09981911180E00F900E
:10502000DF91CF911F910F91FF90EF900895509ACB
:10503000589A08955098589AE89AE9E6F0E08081E5
:105040008C7F80830895615091E001C0990F6A952B
:10505000EAF720E031E0992361F0492F482319F065
:10506000589A232701C0589840E24A95F1F796953F
:10507000F2CF222311F0589A01C0589880E28A9505
:10508000F1F758980895FF920F931F93CF93DF93F2
:10509000EC018C01060F111DC017D10741F0F990EA
:1050A0000E94C42768E08F2D0E942328F5CFDF914E
:1050B000CF911F910F91FF9008951F920F920FB6FD
:1050C0000F921124EF92FF920F931F932F933F9310
:1050D0004F935F936F937F938F939F93AF93BF9300
:1050E000EF93FF93CF93DF931F92CDB7DEB7198273
:1050F0000E94BC27CE0101960E94CA27A82FA69520
:10510000A695A6959A2F969595702A2F2570920FA1
:10511000292F237096959695920F877089137CC0DE
:105120008981811179C0A63008F076C080E18A9526
:10513000F1F7589A509AB2E0BA95F1F700C0589832
:10514000EA2EF12CEAE0AE9FD0011124AB5FBE4FF6
:105150001896ED91FC9119973097B1F06091D101BB
:105160007091D20116962D913C911797260F371FFB
:1051700013968D919C911497680F791F15964C91F9
:10518000159712968C9109958AE08E9DF0018F9D5E
:10519000F00D1124EB5FFE4F6581662351F0809185
:1051A000D1019091D20126813781820F931F0E94F5
:1051B00043280E94C427F0E1FA95F1F758985098D7
:1051C000589A80E18A95F1F78AE08E9D80018F9D43
:1051D000100D11240B5F1E4FD80112966C9112977F
:1051E000662399F08091D1019091D20113962D916F
:1051F0003C911497820F931F0E94F027D801ED91E4
:10520000FC91811105C082E004C0D801ED91FC91B0
:1052100088E080830E94BC270F90DF91CF91FF919F
:10522000EF91BF91AF919F918F917F916F915F911E
:105230004F913F912F911F910F91FF90EF900F9001
:105240000FBE0F901F9018950F931F93CF93DF936E
:10525000863091050CF0A9C02AE0289FF001299F13
:10526000F00D1124EB5FFE4F20813181232B09F4D7
:105270009CC0EC01F894509A589885E08A95F1F713
:1052800000008C2F869585709C2F9570890F982F24
:105290009370869586958E0123E0000F111F2A9545
:1052A000E1F7890F082B0E94C427A4E0AA95F1F723
:1052B00000C068E0802F0E942328B0E1BA95F1F782
:1052C0005098589A489902C000C0FCCF87E090E0FF
:1052D000489B17C0019799F4509A589A8AE08C9F7E
:1052E000F0018D9FF00D1124EB5FFE4F0190F081D6
:1052F000E02D81E08083789481E090E058C000C088
:10530000E7CF8AE08C9F80018D9F100D11240B5FE9
:105310001E4FF80165816623B9F08091D10190910B
:10532000D20126813781820F931F0E94F0278111BD
:105330000BC0509A589AD801ED91FC9182E080837D
:10534000789482E090E033C00E94BC27B0E2BA9526
:10535000F1F75898509AE0E1EA95F1F78AE08C9FCE
:10536000F0018D9FF00D1124EB5FFE4F62816623EB
:1053700051F08091D1019091D20123813481820F2B
:10538000931F0E9443280E94C4278AE08C9FF0014B
:105390008D9FF00D1124EB5FFE4F0190F081E02D09
:1053A0001082789480E090E002C084E090E0DF9189
:1053B000CF911F910F9108959093F9018093F80177
:1053C00008959093DF028093DE0208950E94C51530
:1053D000811103C08091D9020895E091DE02F0911D
:1053E000DF02309721F00190F081E02D099480E0F8
:1053F0000895E091DE02F091DF02309721F0028003
:10540000F381E02D09940895E091DE02F091DF022E
:10541000309739F022E0DC012C930480F581E02DF7
:10542000099408952091DC023091DD022817390794
:1054300071F09093DD028093DC02E091DE02F09146
:10544000DF02309721F00680F781E02D099408955E
:105450002091DA023091DB022817390771F090931E
:10546000DB028093DA02E091DE02F091DF023097F6
:1054700021F00084F185E02D09940895FC01329615
:1054800097E080E0915029F021912223D9F38F5F9A
:10549000F9CF0895662349F0FC01329608962191D0
:1054A000621729F0E817F907D1F780E0089581E045
:1054B00008959C01FC0132969FEF80E041914617D0
:1054C00089F09F3F19F4411101C0982F8F5F8630FA
:1054D000A9F79F3F39F0F901E90FF11D97FDFA9502
:1054E0006283089508959C012A5F3F4FFC01428129
:1054F000461301C01282019682179307B9F70895E7
:105500000C94592A0C94732A029626E0FC011192FD
:105510002A95E9F7089508950C948B2A83E08093E7
:10552000E0020C948C2A811102C081E001C082E06B
:105530008093E0020C948C2A0C94932A81E080934F
:10554000E0020C948C2A0C949E2A089580913E03CC
:10555000843031F10E9456041092E10220E488E187
:1055600090E00FB6F894A895809360000FBE20934A
:10557000600083B7817F846083BF83B7816083BF0E
:105580007894889583B78E7F83BF0FB6F894A895DB
:1055900080916000886180936000109260000FBE6F
:1055A000089508950C94D12ACF930E94D22A0E9484
:1055B00033150E94D12AC0E08C2F0E94EF13811175
:1055C00004C0CF5FCA30C1F701C081E0CF91089518
:1055D0000E941A090C94D1041F920F920FB60F92D9
:1055E00011248F939F93AF93BF938091E102811118
:1055F00013C08091360390913703A0913803B09186
:1056000039034196A11DB11D809336039093370352
:10561000A0933803B0933903BF91AF919F918F91BD
:105620000F900FBE0F901F90189582E084BD93E0FD
:1056300095BD9AEF97BD80936E0008952FB7F894AB
:105640008091360390913703A0913803B0913903CC
:105650002FBF08952FB7F8946091360370913703E8
:1056600080913803909139032FBF08959C014FB763
:10567000F8948091360390913703A0913803B0914C
:1056800039034FBF821B930B0895CF92DF92EF92A5
:10569000FF922FB7F894C0903603D0903703E09074
:1056A0003803F09039032FBFA7019601261B370B53
:1056B000480B590BCA01B901FF90EF90DF90CF90D2
:1056C000089578941F920F920FB60F9211248F9322
:1056D0009F93AF93BF938091360390913703A0912E
:1056E0003803B09139030196A11DB11D8093360393
:1056F00090933703A0933803B0933903BF91AF91D0
:105700009F918F910F900FBE0F901F90189581E081
:105710008093E00080E28093D8001092C9008FE16E
:105720009EE40197F1F700C0000087E090EBDC01F8
:105730008093470390934803A0934903B0934A038F
:105740009CE088E10FB6F894A895809360000FBEA6
:1057500090936000FFCF8091ED020895089522E0BC
:105760002093E9002FEF3091E800215035FD06C06D
:1057700035ED3A95F1F700002111F5CF2091E800C1
:1057800025FF0BC040E050E066E070E00E94D92D9C
:105790008091E8008E778093E8000895CF93DF939F
:1057A00021E02093E9002FEF3091E800215035FDF2
:1057B00006C035ED3A95F1F700002111F5CF2091A3
:1057C000E80025FF14C0EC0140E050E068E070E024
:1057D0000E94D92D8091E8008E778093E80088E0C0
:1057E000FE01A5EEB2E001900D928A95E1F7DF91FE
:1057F000CF9108958093E2027093E4026093E302F4
:1058000080913E03843001F582E08093E9008FEFC0
:105810009091E800815095FD06C095ED9A95F1F7BD
:1058200000008111F5CF8091E80085FF0DC040E0B8
:1058300050E063E070E082EE92E00E94D92D80910A
:10584000E8008E778093E8000895BC0184E00C9412
:10585000FA2BBC0183E00C94FA2B80913D0381115B
:1058600009C00E946A2F0E94C72F8091E2008460C5
:105870008093E200089510923D0308950C94A32AAA
:1058800060913A0381E0611101C080E00C948E2A9E
:1058900090913E0381E0943009F080E060913A03FA
:1058A0000C94932A42E061EC81E00E94E32E42E2F4
:1058B00061EC82E00E94E32E90913E0381E09430FF
:1058C00009F080E060913A030C949C2A8091400397
:1058D000833009F461C030F4813071F0823009F412
:1058E0009AC008958A3009F486C08B3009F46CC0E0
:1058F000893009F0A8C020C080913F03813A09F0A7
:10590000A2C08091E800877F8093E80080914303E4
:1059100090914403892B21F468E085EE92E003C066
:1059200060E080E090E070E00E94242E8091E8002A
:105930008B778093E800089580913F03813209F0CE
:1059400082C08091430390914403029708F07BC08A
:105950008091E800877F8093E8008091E80082FDD5
:1059600005C080913E038111F8CF6DC02091F300F6
:105970008091F20090E0922B029731F48091F10037
:10598000813011F0863021F48091F1008093ED0296
:105990008091E8008B7753C080913F03813A09F0F2
:1059A00052C08091430390914403892B09F04BC06E
:1059B0008091E800877F8093E8008091E80080FF75
:1059C000FCCF80915E0136C080913F038132D9F5D2
:1059D0008091430390914403892BA9F58091E800BD
:1059E000877F8093E8000E94182F80914103809365
:1059F0005E010C941A0980913F03813221F5809158
:105A0000E800877F8093E8000E94182F809142036E
:105A10008093EE02089580913F03813AA1F4809132
:105A2000E800877F8093E8008091E80080FFFCCF4A
:105A30008091EE028093F1008091E8008E77809350
:105A4000E8000C94182F089584B7877F84BF0FB6A1
:105A5000F894A8958091600088618093600010920E
:105A600060000FBE90E080E80FB6F894809361006C
:105A7000909361000FBE0C949E2A0E946A2F0E9490
:105A8000C72FE2EEF0E080818460808378940C94EC
:105A90005C3282E591E00C94E12980913E038530EF
:105AA000A9F480913E03853079F40E94A62A809162
:105AB0003C038823B1F30E94D42A882391F30E94E7
:105AC000C32D0E941A09EDCF0C94E82A0895089579
:105AD0000C946A2D292F332723303105C9F060F447
